{
	"FundMe.sol": {
		"FundMe": {
			"abi": [
				{
					"inputs": [],
					"stateMutability": "nonpayable",
					"type": "constructor"
				},
				{
					"inputs": [],
					"name": "brokie",
					"type": "error"
				},
				{
					"stateMutability": "payable",
					"type": "fallback"
				},
				{
					"inputs": [],
					"name": "PRICE_USD",
					"outputs": [
						{
							"internalType": "uint256",
							"name": "",
							"type": "uint256"
						}
					],
					"stateMutability": "view",
					"type": "function"
				},
				{
					"inputs": [
						{
							"internalType": "uint256",
							"name": "",
							"type": "uint256"
						}
					],
					"name": "fudders",
					"outputs": [
						{
							"internalType": "address",
							"name": "",
							"type": "address"
						}
					],
					"stateMutability": "view",
					"type": "function"
				},
				{
					"inputs": [],
					"name": "fund",
					"outputs": [],
					"stateMutability": "payable",
					"type": "function"
				},
				{
					"inputs": [],
					"name": "i_owner",
					"outputs": [
						{
							"internalType": "address",
							"name": "",
							"type": "address"
						}
					],
					"stateMutability": "view",
					"type": "function"
				},
				{
					"inputs": [
						{
							"internalType": "address",
							"name": "brokie",
							"type": "address"
						}
					],
					"name": "loosers",
					"outputs": [
						{
							"internalType": "uint256",
							"name": "lost",
							"type": "uint256"
						}
					],
					"stateMutability": "view",
					"type": "function"
				},
				{
					"inputs": [],
					"name": "withdraw",
					"outputs": [],
					"stateMutability": "nonpayable",
					"type": "function"
				},
				{
					"stateMutability": "payable",
					"type": "receive"
				}
			],
			"devdoc": {
				"kind": "dev",
				"methods": {},
				"version": 1
			},
			"evm": {
				"assembly": "    /* \"FundMe.sol\":117:1152  contract FundMe {... */\n  mstore(0x40, 0xa0)\n    /* \"FundMe.sol\":212:263  constructor() {... */\n  callvalue\n  dup1\n  iszero\n  tag_1\n  jumpi\n  0x00\n  dup1\n  revert\ntag_1:\n  pop\n    /* \"FundMe.sol\":246:256  msg.sender */\n  caller\n    /* \"FundMe.sol\":236:256  i_owner = msg.sender */\n  0xffffffffffffffffffffffffffffffffffffffff\n  and\n  0x80\n  dup2\n  0xffffffffffffffffffffffffffffffffffffffff\n  and\n  dup2\n  mstore\n  pop\n  pop\n    /* \"FundMe.sol\":117:1152  contract FundMe {... */\n  mload(0x80)\n  codecopy(0x00, dataOffset(sub_0), dataSize(sub_0))\n  0x00\n  assignImmutable(\"0x32da71dbd53bc029835bc5ecdd3e688035cc92bb61b1811d1685e67ba974e19f\")\n  return(0x00, dataSize(sub_0))\nstop\n\nsub_0: assembly {\n        /* \"FundMe.sol\":117:1152  contract FundMe {... */\n      mstore(0x40, 0x80)\n      jumpi(tag_1, lt(calldatasize, 0x04))\n      shr(0xe0, calldataload(0x00))\n      dup1\n      0x0ce3f682\n      eq\n      tag_3\n      jumpi\n      dup1\n      0x3ccfd60b\n      eq\n      tag_4\n      jumpi\n      dup1\n      0xb60d4288\n      eq\n      tag_5\n      jumpi\n      dup1\n      0xdba6335f\n      eq\n      tag_6\n      jumpi\n      dup1\n      0xe1ab98ba\n      eq\n      tag_7\n      jumpi\n      dup1\n      0xeab95e37\n      eq\n      tag_8\n      jumpi\n      jump(tag_2)\n    tag_1:\n      jumpi(tag_2, calldatasize)\n        /* \"FundMe.sol\":1096:1102  fund() */\n      tag_11\n        /* \"FundMe.sol\":1096:1100  fund */\n      tag_12\n        /* \"FundMe.sol\":1096:1102  fund() */\n      jump\t// in\n    tag_11:\n        /* \"FundMe.sol\":117:1152  contract FundMe {... */\n      stop\n    tag_2:\n        /* \"FundMe.sol\":1140:1146  fund() */\n      tag_15\n        /* \"FundMe.sol\":1140:1144  fund */\n      tag_12\n        /* \"FundMe.sol\":1140:1146  fund() */\n      jump\t// in\n    tag_15:\n        /* \"FundMe.sol\":117:1152  contract FundMe {... */\n      stop\n        /* \"FundMe.sol\":463:514  mapping(address brokie => uint lost) public loosers */\n    tag_3:\n      callvalue\n      dup1\n      iszero\n      tag_16\n      jumpi\n      0x00\n      dup1\n      revert\n    tag_16:\n      pop\n      tag_17\n      0x04\n      dup1\n      calldatasize\n      sub\n      dup2\n      add\n      swap1\n      tag_18\n      swap2\n      swap1\n      tag_19\n      jump\t// in\n    tag_18:\n      tag_20\n      jump\t// in\n    tag_17:\n      mload(0x40)\n      tag_21\n      swap2\n      swap1\n      tag_22\n      jump\t// in\n    tag_21:\n      mload(0x40)\n      dup1\n      swap2\n      sub\n      swap1\n      return\n        /* \"FundMe.sol\":704:1061  function withdraw() public onlyOwner {... */\n    tag_4:\n      callvalue\n      dup1\n      iszero\n      tag_23\n      jumpi\n      0x00\n      dup1\n      revert\n    tag_23:\n      pop\n      tag_24\n      tag_25\n      jump\t// in\n    tag_24:\n      stop\n        /* \"FundMe.sol\":521:698  function fund() public payable{... */\n    tag_5:\n      tag_26\n      tag_12\n      jump\t// in\n    tag_26:\n      stop\n        /* \"FundMe.sol\":169:201  address public immutable i_owner */\n    tag_6:\n      callvalue\n      dup1\n      iszero\n      tag_27\n      jumpi\n      0x00\n      dup1\n      revert\n    tag_27:\n      pop\n      tag_28\n      tag_29\n      jump\t// in\n    tag_28:\n      mload(0x40)\n      tag_30\n      swap2\n      swap1\n      tag_31\n      jump\t// in\n    tag_30:\n      mload(0x40)\n      dup1\n      swap2\n      sub\n      swap1\n      return\n        /* \"FundMe.sol\":386:427  uint public constant PRICE_USD = 1 * 1e18 */\n    tag_7:\n      callvalue\n      dup1\n      iszero\n      tag_32\n      jumpi\n      0x00\n      dup1\n      revert\n    tag_32:\n      pop\n      tag_33\n      tag_34\n      jump\t// in\n    tag_33:\n      mload(0x40)\n      tag_35\n      swap2\n      swap1\n      tag_22\n      jump\t// in\n    tag_35:\n      mload(0x40)\n      dup1\n      swap2\n      sub\n      swap1\n      return\n        /* \"FundMe.sol\":433:457  address[] public fudders */\n    tag_8:\n      callvalue\n      dup1\n      iszero\n      tag_36\n      jumpi\n      0x00\n      dup1\n      revert\n    tag_36:\n      pop\n      tag_37\n      0x04\n      dup1\n      calldatasize\n      sub\n      dup2\n      add\n      swap1\n      tag_38\n      swap2\n      swap1\n      tag_39\n      jump\t// in\n    tag_38:\n      tag_40\n      jump\t// in\n    tag_37:\n      mload(0x40)\n      tag_41\n      swap2\n      swap1\n      tag_31\n      jump\t// in\n    tag_41:\n      mload(0x40)\n      dup1\n      swap2\n      sub\n      swap1\n      return\n        /* \"FundMe.sol\":521:698  function fund() public payable{... */\n    tag_12:\n        /* \"FundMe.sol\":419:427  1 * 1e18 */\n      0x0de0b6b3a7640000\n        /* \"FundMe.sol\":569:591  msg.value.conversion() */\n      tag_43\n        /* \"FundMe.sol\":569:578  msg.value */\n      callvalue\n        /* \"FundMe.sol\":569:589  msg.value.conversion */\n      tag_44\n        /* \"FundMe.sol\":569:591  msg.value.conversion() */\n      jump\t// in\n    tag_43:\n        /* \"FundMe.sol\":569:604  msg.value.conversion() >= PRICE_USD */\n      lt\n      iszero\n        /* \"FundMe.sol\":561:615  require(msg.value.conversion() >= PRICE_USD, \"brokie\") */\n      tag_45\n      jumpi\n      mload(0x40)\n      0x08c379a000000000000000000000000000000000000000000000000000000000\n      dup2\n      mstore\n      0x04\n      add\n      tag_46\n      swap1\n      tag_47\n      jump\t// in\n    tag_46:\n      mload(0x40)\n      dup1\n      swap2\n      sub\n      swap1\n      revert\n    tag_45:\n        /* \"FundMe.sol\":625:632  fudders */\n      0x00\n        /* \"FundMe.sol\":638:648  msg.sender */\n      caller\n        /* \"FundMe.sol\":625:649  fudders.push(msg.sender) */\n      swap1\n      dup1\n      0x01\n      dup2\n      sload\n      add\n      dup1\n      dup3\n      sstore\n      dup1\n      swap2\n      pop\n      pop\n      0x01\n      swap1\n      sub\n      swap1\n      0x00\n      mstore\n      keccak256(0x00, 0x20)\n      add\n      0x00\n      swap1\n      swap2\n      swap1\n      swap2\n      swap1\n      swap2\n      0x0100\n      exp\n      dup2\n      sload\n      dup2\n      0xffffffffffffffffffffffffffffffffffffffff\n      mul\n      not\n      and\n      swap1\n      dup4\n      0xffffffffffffffffffffffffffffffffffffffff\n      and\n      mul\n      or\n      swap1\n      sstore\n      pop\n        /* \"FundMe.sol\":682:691  msg.value */\n      callvalue\n        /* \"FundMe.sol\":659:666  loosers */\n      0x01\n        /* \"FundMe.sol\":659:678  loosers[msg.sender] */\n      0x00\n        /* \"FundMe.sol\":667:677  msg.sender */\n      caller\n        /* \"FundMe.sol\":659:678  loosers[msg.sender] */\n      0xffffffffffffffffffffffffffffffffffffffff\n      and\n      0xffffffffffffffffffffffffffffffffffffffff\n      and\n      dup2\n      mstore\n      0x20\n      add\n      swap1\n      dup2\n      mstore\n      0x20\n      add\n      0x00\n      keccak256\n      0x00\n        /* \"FundMe.sol\":659:691  loosers[msg.sender] += msg.value */\n      dup3\n      dup3\n      sload\n      tag_49\n      swap2\n      swap1\n      tag_50\n      jump\t// in\n    tag_49:\n      swap3\n      pop\n      pop\n      dup2\n      swap1\n      sstore\n      pop\n        /* \"FundMe.sol\":521:698  function fund() public payable{... */\n      jump\t// out\n        /* \"FundMe.sol\":463:514  mapping(address brokie => uint lost) public loosers */\n    tag_20:\n      mstore(0x20, 0x01)\n      dup1\n      0x00\n      mstore\n      keccak256(0x00, 0x40)\n      0x00\n      swap2\n      pop\n      swap1\n      pop\n      sload\n      dup2\n      jump\t// out\n        /* \"FundMe.sol\":704:1061  function withdraw() public onlyOwner {... */\n    tag_25:\n        /* \"FundMe.sol\":315:322  i_owner */\n      immutable(\"0x32da71dbd53bc029835bc5ecdd3e688035cc92bb61b1811d1685e67ba974e19f\")\n        /* \"FundMe.sol\":301:322  msg.sender != i_owner */\n      0xffffffffffffffffffffffffffffffffffffffff\n      and\n        /* \"FundMe.sol\":301:311  msg.sender */\n      caller\n        /* \"FundMe.sol\":301:322  msg.sender != i_owner */\n      0xffffffffffffffffffffffffffffffffffffffff\n      and\n      eq\n        /* \"FundMe.sol\":297:363  if (msg.sender != i_owner){... */\n      tag_52\n      jumpi\n        /* \"FundMe.sol\":344:352  brokie() */\n      mload(0x40)\n      0x6d2d3ef800000000000000000000000000000000000000000000000000000000\n      dup2\n      mstore\n      0x04\n      add\n      mload(0x40)\n      dup1\n      swap2\n      sub\n      swap1\n      revert\n        /* \"FundMe.sol\":297:363  if (msg.sender != i_owner){... */\n    tag_52:\n        /* \"FundMe.sol\":755:765  uint index */\n      0x00\n        /* \"FundMe.sol\":751:1055  for(uint index; index < fudders.length; index++){... */\n    tag_54:\n        /* \"FundMe.sol\":775:782  fudders */\n      0x00\n        /* \"FundMe.sol\":775:789  fudders.length */\n      dup1\n      sload\n      swap1\n      pop\n        /* \"FundMe.sol\":767:772  index */\n      dup2\n        /* \"FundMe.sol\":767:789  index < fudders.length */\n      lt\n        /* \"FundMe.sol\":751:1055  for(uint index; index < fudders.length; index++){... */\n      iszero\n      tag_55\n      jumpi\n        /* \"FundMe.sol\":813:827  address fudder */\n      0x00\n        /* \"FundMe.sol\":830:837  fudders */\n      dup1\n        /* \"FundMe.sol\":838:843  index */\n      dup3\n        /* \"FundMe.sol\":830:844  fudders[index] */\n      dup2\n      sload\n      dup2\n      lt\n      tag_57\n      jumpi\n      tag_58\n      tag_59\n      jump\t// in\n    tag_58:\n    tag_57:\n      swap1\n      0x00\n      mstore\n      keccak256(0x00, 0x20)\n      add\n      0x00\n      swap1\n      sload\n      swap1\n      0x0100\n      exp\n      swap1\n      div\n      0xffffffffffffffffffffffffffffffffffffffff\n      and\n        /* \"FundMe.sol\":813:844  address fudder = fudders[index] */\n      swap1\n      pop\n        /* \"FundMe.sol\":876:877  0 */\n      0x00\n        /* \"FundMe.sol\":858:865  loosers */\n      0x01\n        /* \"FundMe.sol\":858:873  loosers[fudder] */\n      0x00\n        /* \"FundMe.sol\":866:872  fudder */\n      dup4\n        /* \"FundMe.sol\":858:873  loosers[fudder] */\n      0xffffffffffffffffffffffffffffffffffffffff\n      and\n      0xffffffffffffffffffffffffffffffffffffffff\n      and\n      dup2\n      mstore\n      0x20\n      add\n      swap1\n      dup2\n      mstore\n      0x20\n      add\n      0x00\n      keccak256\n        /* \"FundMe.sol\":858:877  loosers[fudder] = 0 */\n      dup2\n      swap1\n      sstore\n      pop\n        /* \"FundMe.sol\":915:916  0 */\n      0x00\n        /* \"FundMe.sol\":901:917  new address[](0) */\n      0xffffffffffffffff\n      dup2\n      gt\n      iszero\n      tag_61\n      jumpi\n      tag_62\n      tag_63\n      jump\t// in\n    tag_62:\n    tag_61:\n      mload(0x40)\n      swap1\n      dup1\n      dup3\n      mstore\n      dup1\n      0x20\n      mul\n      0x20\n      add\n      dup3\n      add\n      0x40\n      mstore\n      dup1\n      iszero\n      tag_64\n      jumpi\n      dup2\n      0x20\n      add\n      0x20\n      dup3\n      mul\n      dup1\n      calldatasize\n      dup4\n      calldatacopy\n      dup1\n      dup3\n      add\n      swap2\n      pop\n      pop\n      swap1\n      pop\n    tag_64:\n      pop\n        /* \"FundMe.sol\":891:898  fudders */\n      0x00\n        /* \"FundMe.sol\":891:917  fudders = new address[](0) */\n      swap1\n      dup1\n      mload\n      swap1\n      0x20\n      add\n      swap1\n      tag_65\n      swap3\n      swap2\n      swap1\n      tag_66\n      jump\t// in\n    tag_65:\n      pop\n        /* \"FundMe.sol\":932:949  bool greatsuccess */\n      0x00\n        /* \"FundMe.sol\":954:964  msg.sender */\n      caller\n        /* \"FundMe.sol\":954:969  msg.sender.call */\n      0xffffffffffffffffffffffffffffffffffffffff\n      and\n        /* \"FundMe.sol\":977:998  address(this).balance */\n      selfbalance\n        /* \"FundMe.sol\":954:1003  msg.sender.call{value: address(this).balance}(\"\") */\n      mload(0x40)\n      tag_67\n      swap1\n      tag_68\n      jump\t// in\n    tag_67:\n      0x00\n      mload(0x40)\n      dup1\n      dup4\n      sub\n      dup2\n      dup6\n      dup8\n      gas\n      call\n      swap3\n      pop\n      pop\n      pop\n      returndatasize\n      dup1\n      0x00\n      dup2\n      eq\n      tag_71\n      jumpi\n      mload(0x40)\n      swap2\n      pop\n      and(add(returndatasize, 0x3f), not(0x1f))\n      dup3\n      add\n      0x40\n      mstore\n      returndatasize\n      dup3\n      mstore\n      returndatasize\n      0x00\n      0x20\n      dup5\n      add\n      returndatacopy\n      jump(tag_70)\n    tag_71:\n      0x60\n      swap2\n      pop\n    tag_70:\n      pop\n        /* \"FundMe.sol\":931:1003  (bool greatsuccess,) = msg.sender.call{value: address(this).balance}(\"\") */\n      pop\n      swap1\n      pop\n        /* \"FundMe.sol\":1025:1037  greatsuccess */\n      dup1\n        /* \"FundMe.sol\":1017:1044  require(greatsuccess, \"gg\") */\n      tag_72\n      jumpi\n      mload(0x40)\n      0x08c379a000000000000000000000000000000000000000000000000000000000\n      dup2\n      mstore\n      0x04\n      add\n      tag_73\n      swap1\n      tag_74\n      jump\t// in\n    tag_73:\n      mload(0x40)\n      dup1\n      swap2\n      sub\n      swap1\n      revert\n    tag_72:\n        /* \"FundMe.sol\":799:1055  {... */\n      pop\n      pop\n        /* \"FundMe.sol\":791:798  index++ */\n      dup1\n      dup1\n      tag_75\n      swap1\n      tag_76\n      jump\t// in\n    tag_75:\n      swap2\n      pop\n      pop\n        /* \"FundMe.sol\":751:1055  for(uint index; index < fudders.length; index++){... */\n      jump(tag_54)\n    tag_55:\n      pop\n        /* \"FundMe.sol\":704:1061  function withdraw() public onlyOwner {... */\n      jump\t// out\n        /* \"FundMe.sol\":169:201  address public immutable i_owner */\n    tag_29:\n      immutable(\"0x32da71dbd53bc029835bc5ecdd3e688035cc92bb61b1811d1685e67ba974e19f\")\n      dup2\n      jump\t// out\n        /* \"FundMe.sol\":386:427  uint public constant PRICE_USD = 1 * 1e18 */\n    tag_34:\n        /* \"FundMe.sol\":419:427  1 * 1e18 */\n      0x0de0b6b3a7640000\n        /* \"FundMe.sol\":386:427  uint public constant PRICE_USD = 1 * 1e18 */\n      dup2\n      jump\t// out\n        /* \"FundMe.sol\":433:457  address[] public fudders */\n    tag_40:\n      0x00\n      dup2\n      dup2\n      sload\n      dup2\n      lt\n      tag_77\n      jumpi\n      0x00\n      dup1\n      revert\n    tag_77:\n      swap1\n      0x00\n      mstore\n      keccak256(0x00, 0x20)\n      add\n      0x00\n      swap2\n      pop\n      sload\n      swap1\n      0x0100\n      exp\n      swap1\n      div\n      0xffffffffffffffffffffffffffffffffffffffff\n      and\n      dup2\n      jump\t// out\n        /* \"GetPrice.sol\":475:645  function conversion(uint ethamount) internal view returns(uint){... */\n    tag_44:\n        /* \"GetPrice.sol\":533:537  uint */\n      0x00\n        /* \"GetPrice.sol\":548:567  uint ethamountinusd */\n      dup1\n        /* \"GetPrice.sol\":603:607  1e18 */\n      0x0de0b6b3a7640000\n        /* \"GetPrice.sol\":583:599  getLatestPrice() */\n      tag_80\n        /* \"GetPrice.sol\":583:597  getLatestPrice */\n      tag_81\n        /* \"GetPrice.sol\":583:599  getLatestPrice() */\n      jump\t// in\n    tag_80:\n        /* \"GetPrice.sol\":571:580  ethamount */\n      dup5\n        /* \"GetPrice.sol\":571:599  ethamount * getLatestPrice() */\n      tag_82\n      swap2\n      swap1\n      tag_83\n      jump\t// in\n    tag_82:\n        /* \"GetPrice.sol\":570:607  (ethamount * getLatestPrice()) / 1e18 */\n      tag_84\n      swap2\n      swap1\n      tag_85\n      jump\t// in\n    tag_84:\n        /* \"GetPrice.sol\":548:607  uint ethamountinusd = (ethamount * getLatestPrice()) / 1e18 */\n      swap1\n      pop\n        /* \"GetPrice.sol\":624:638  ethamountinusd */\n      dup1\n        /* \"GetPrice.sol\":617:638  return ethamountinusd */\n      swap2\n      pop\n      pop\n        /* \"GetPrice.sol\":475:645  function conversion(uint ethamount) internal view returns(uint){... */\n      swap2\n      swap1\n      pop\n      jump\t// out\n        /* \"GetPrice.sol\":200:469  function getLatestPrice() internal view returns(uint) {... */\n    tag_81:\n        /* \"GetPrice.sol\":248:252  uint */\n      0x00\n        /* \"GetPrice.sol\":264:297  AggregatorV3Interface LatestPrice */\n      dup1\n        /* \"GetPrice.sol\":322:364  0x5f4eC3Df9cbd43714FE2740f5E3616155c5b8419 */\n      0x5f4ec3df9cbd43714fe2740f5e3616155c5b8419\n        /* \"GetPrice.sol\":264:365  AggregatorV3Interface LatestPrice = AggregatorV3Interface(0x5f4eC3Df9cbd43714FE2740f5E3616155c5b8419) */\n      swap1\n      pop\n        /* \"GetPrice.sol\":377:390  int256 answer */\n      0x00\n        /* \"GetPrice.sol\":397:408  LatestPrice */\n      dup2\n        /* \"GetPrice.sol\":397:424  LatestPrice.latestRoundData */\n      0xffffffffffffffffffffffffffffffffffffffff\n      and\n      0xfeaf968c\n        /* \"GetPrice.sol\":397:426  LatestPrice.latestRoundData() */\n      mload(0x40)\n      dup2\n      0xffffffff\n      and\n      0xe0\n      shl\n      dup2\n      mstore\n      0x04\n      add\n      0xa0\n      mload(0x40)\n      dup1\n      dup4\n      sub\n      dup2\n      dup7\n      gas\n      staticcall\n      iszero\n      dup1\n      iszero\n      tag_88\n      jumpi\n      returndatasize\n      0x00\n      dup1\n      returndatacopy\n      revert(0x00, returndatasize)\n    tag_88:\n      pop\n      pop\n      pop\n      pop\n      mload(0x40)\n      returndatasize\n      not(0x1f)\n      0x1f\n      dup3\n      add\n      and\n      dup3\n      add\n      dup1\n      0x40\n      mstore\n      pop\n      dup2\n      add\n      swap1\n      tag_89\n      swap2\n      swap1\n      tag_90\n      jump\t// in\n    tag_89:\n        /* \"GetPrice.sol\":375:426  (,int256 answer,,,) = LatestPrice.latestRoundData() */\n      pop\n      pop\n      pop\n      swap2\n      pop\n      pop\n        /* \"GetPrice.sol\":457:461  1e10 */\n      0x02540be400\n        /* \"GetPrice.sol\":448:454  answer */\n      dup2\n        /* \"GetPrice.sol\":448:461  answer * 1e10 */\n      tag_91\n      swap2\n      swap1\n      tag_92\n      jump\t// in\n    tag_91:\n        /* \"GetPrice.sol\":436:462  return uint(answer * 1e10) */\n      swap3\n      pop\n      pop\n      pop\n        /* \"GetPrice.sol\":200:469  function getLatestPrice() internal view returns(uint) {... */\n      swap1\n      jump\t// out\n    tag_66:\n      dup3\n      dup1\n      sload\n      dup3\n      dup3\n      sstore\n      swap1\n      0x00\n      mstore\n      keccak256(0x00, 0x20)\n      swap1\n      dup2\n      add\n      swap3\n      dup3\n      iszero\n      tag_93\n      jumpi\n      swap2\n      0x20\n      mul\n      dup3\n      add\n    tag_94:\n      dup3\n      dup2\n      gt\n      iszero\n      tag_95\n      jumpi\n      dup3\n      mload\n      dup3\n      exp(0x0100, 0x00)\n      dup2\n      sload\n      dup2\n      0xffffffffffffffffffffffffffffffffffffffff\n      mul\n      not\n      and\n      swap1\n      dup4\n      0xffffffffffffffffffffffffffffffffffffffff\n      and\n      mul\n      or\n      swap1\n      sstore\n      pop\n      swap2\n      0x20\n      add\n      swap2\n      swap1\n      0x01\n      add\n      swap1\n      jump(tag_94)\n    tag_95:\n    tag_93:\n      pop\n      swap1\n      pop\n      tag_96\n      swap2\n      swap1\n      tag_97\n      jump\t// in\n    tag_96:\n      pop\n      swap1\n      jump\t// out\n    tag_97:\n    tag_98:\n      dup1\n      dup3\n      gt\n      iszero\n      tag_99\n      jumpi\n      0x00\n      dup2\n      0x00\n      swap1\n      sstore\n      pop\n      0x01\n      add\n      jump(tag_98)\n    tag_99:\n      pop\n      swap1\n      jump\t// out\n        /* \"#utility.yul\":88:205   */\n    tag_101:\n        /* \"#utility.yul\":197:198   */\n      0x00\n        /* \"#utility.yul\":194:195   */\n      dup1\n        /* \"#utility.yul\":187:199   */\n      revert\n        /* \"#utility.yul\":334:460   */\n    tag_103:\n        /* \"#utility.yul\":371:378   */\n      0x00\n        /* \"#utility.yul\":411:453   */\n      0xffffffffffffffffffffffffffffffffffffffff\n        /* \"#utility.yul\":404:409   */\n      dup3\n        /* \"#utility.yul\":400:454   */\n      and\n        /* \"#utility.yul\":389:454   */\n      swap1\n      pop\n        /* \"#utility.yul\":334:460   */\n      swap2\n      swap1\n      pop\n      jump\t// out\n        /* \"#utility.yul\":466:562   */\n    tag_104:\n        /* \"#utility.yul\":503:510   */\n      0x00\n        /* \"#utility.yul\":532:556   */\n      tag_135\n        /* \"#utility.yul\":550:555   */\n      dup3\n        /* \"#utility.yul\":532:556   */\n      tag_103\n      jump\t// in\n    tag_135:\n        /* \"#utility.yul\":521:556   */\n      swap1\n      pop\n        /* \"#utility.yul\":466:562   */\n      swap2\n      swap1\n      pop\n      jump\t// out\n        /* \"#utility.yul\":568:690   */\n    tag_105:\n        /* \"#utility.yul\":641:665   */\n      tag_137\n        /* \"#utility.yul\":659:664   */\n      dup2\n        /* \"#utility.yul\":641:665   */\n      tag_104\n      jump\t// in\n    tag_137:\n        /* \"#utility.yul\":634:639   */\n      dup2\n        /* \"#utility.yul\":631:666   */\n      eq\n        /* \"#utility.yul\":621:684   */\n      tag_138\n      jumpi\n        /* \"#utility.yul\":680:681   */\n      0x00\n        /* \"#utility.yul\":677:678   */\n      dup1\n        /* \"#utility.yul\":670:682   */\n      revert\n        /* \"#utility.yul\":621:684   */\n    tag_138:\n        /* \"#utility.yul\":568:690   */\n      pop\n      jump\t// out\n        /* \"#utility.yul\":696:835   */\n    tag_106:\n        /* \"#utility.yul\":742:747   */\n      0x00\n        /* \"#utility.yul\":780:786   */\n      dup2\n        /* \"#utility.yul\":767:787   */\n      calldataload\n        /* \"#utility.yul\":758:787   */\n      swap1\n      pop\n        /* \"#utility.yul\":796:829   */\n      tag_140\n        /* \"#utility.yul\":823:828   */\n      dup2\n        /* \"#utility.yul\":796:829   */\n      tag_105\n      jump\t// in\n    tag_140:\n        /* \"#utility.yul\":696:835   */\n      swap3\n      swap2\n      pop\n      pop\n      jump\t// out\n        /* \"#utility.yul\":841:1170   */\n    tag_19:\n        /* \"#utility.yul\":900:906   */\n      0x00\n        /* \"#utility.yul\":949:951   */\n      0x20\n        /* \"#utility.yul\":937:946   */\n      dup3\n        /* \"#utility.yul\":928:935   */\n      dup5\n        /* \"#utility.yul\":924:947   */\n      sub\n        /* \"#utility.yul\":920:952   */\n      slt\n        /* \"#utility.yul\":917:1036   */\n      iszero\n      tag_142\n      jumpi\n        /* \"#utility.yul\":955:1034   */\n      tag_143\n      tag_101\n      jump\t// in\n    tag_143:\n        /* \"#utility.yul\":917:1036   */\n    tag_142:\n        /* \"#utility.yul\":1075:1076   */\n      0x00\n        /* \"#utility.yul\":1100:1153   */\n      tag_144\n        /* \"#utility.yul\":1145:1152   */\n      dup5\n        /* \"#utility.yul\":1136:1142   */\n      dup3\n        /* \"#utility.yul\":1125:1134   */\n      dup6\n        /* \"#utility.yul\":1121:1143   */\n      add\n        /* \"#utility.yul\":1100:1153   */\n      tag_106\n      jump\t// in\n    tag_144:\n        /* \"#utility.yul\":1090:1153   */\n      swap2\n      pop\n        /* \"#utility.yul\":1046:1163   */\n      pop\n        /* \"#utility.yul\":841:1170   */\n      swap3\n      swap2\n      pop\n      pop\n      jump\t// out\n        /* \"#utility.yul\":1176:1253   */\n    tag_107:\n        /* \"#utility.yul\":1213:1220   */\n      0x00\n        /* \"#utility.yul\":1242:1247   */\n      dup2\n        /* \"#utility.yul\":1231:1247   */\n      swap1\n      pop\n        /* \"#utility.yul\":1176:1253   */\n      swap2\n      swap1\n      pop\n      jump\t// out\n        /* \"#utility.yul\":1259:1377   */\n    tag_108:\n        /* \"#utility.yul\":1346:1370   */\n      tag_147\n        /* \"#utility.yul\":1364:1369   */\n      dup2\n        /* \"#utility.yul\":1346:1370   */\n      tag_107\n      jump\t// in\n    tag_147:\n        /* \"#utility.yul\":1341:1344   */\n      dup3\n        /* \"#utility.yul\":1334:1371   */\n      mstore\n        /* \"#utility.yul\":1259:1377   */\n      pop\n      pop\n      jump\t// out\n        /* \"#utility.yul\":1383:1605   */\n    tag_22:\n        /* \"#utility.yul\":1476:1480   */\n      0x00\n        /* \"#utility.yul\":1514:1516   */\n      0x20\n        /* \"#utility.yul\":1503:1512   */\n      dup3\n        /* \"#utility.yul\":1499:1517   */\n      add\n        /* \"#utility.yul\":1491:1517   */\n      swap1\n      pop\n        /* \"#utility.yul\":1527:1598   */\n      tag_149\n        /* \"#utility.yul\":1595:1596   */\n      0x00\n        /* \"#utility.yul\":1584:1593   */\n      dup4\n        /* \"#utility.yul\":1580:1597   */\n      add\n        /* \"#utility.yul\":1571:1577   */\n      dup5\n        /* \"#utility.yul\":1527:1598   */\n      tag_108\n      jump\t// in\n    tag_149:\n        /* \"#utility.yul\":1383:1605   */\n      swap3\n      swap2\n      pop\n      pop\n      jump\t// out\n        /* \"#utility.yul\":1611:1729   */\n    tag_109:\n        /* \"#utility.yul\":1698:1722   */\n      tag_151\n        /* \"#utility.yul\":1716:1721   */\n      dup2\n        /* \"#utility.yul\":1698:1722   */\n      tag_104\n      jump\t// in\n    tag_151:\n        /* \"#utility.yul\":1693:1696   */\n      dup3\n        /* \"#utility.yul\":1686:1723   */\n      mstore\n        /* \"#utility.yul\":1611:1729   */\n      pop\n      pop\n      jump\t// out\n        /* \"#utility.yul\":1735:1957   */\n    tag_31:\n        /* \"#utility.yul\":1828:1832   */\n      0x00\n        /* \"#utility.yul\":1866:1868   */\n      0x20\n        /* \"#utility.yul\":1855:1864   */\n      dup3\n        /* \"#utility.yul\":1851:1869   */\n      add\n        /* \"#utility.yul\":1843:1869   */\n      swap1\n      pop\n        /* \"#utility.yul\":1879:1950   */\n      tag_153\n        /* \"#utility.yul\":1947:1948   */\n      0x00\n        /* \"#utility.yul\":1936:1945   */\n      dup4\n        /* \"#utility.yul\":1932:1949   */\n      add\n        /* \"#utility.yul\":1923:1929   */\n      dup5\n        /* \"#utility.yul\":1879:1950   */\n      tag_109\n      jump\t// in\n    tag_153:\n        /* \"#utility.yul\":1735:1957   */\n      swap3\n      swap2\n      pop\n      pop\n      jump\t// out\n        /* \"#utility.yul\":1963:2085   */\n    tag_110:\n        /* \"#utility.yul\":2036:2060   */\n      tag_155\n        /* \"#utility.yul\":2054:2059   */\n      dup2\n        /* \"#utility.yul\":2036:2060   */\n      tag_107\n      jump\t// in\n    tag_155:\n        /* \"#utility.yul\":2029:2034   */\n      dup2\n        /* \"#utility.yul\":2026:2061   */\n      eq\n        /* \"#utility.yul\":2016:2079   */\n      tag_156\n      jumpi\n        /* \"#utility.yul\":2075:2076   */\n      0x00\n        /* \"#utility.yul\":2072:2073   */\n      dup1\n        /* \"#utility.yul\":2065:2077   */\n      revert\n        /* \"#utility.yul\":2016:2079   */\n    tag_156:\n        /* \"#utility.yul\":1963:2085   */\n      pop\n      jump\t// out\n        /* \"#utility.yul\":2091:2230   */\n    tag_111:\n        /* \"#utility.yul\":2137:2142   */\n      0x00\n        /* \"#utility.yul\":2175:2181   */\n      dup2\n        /* \"#utility.yul\":2162:2182   */\n      calldataload\n        /* \"#utility.yul\":2153:2182   */\n      swap1\n      pop\n        /* \"#utility.yul\":2191:2224   */\n      tag_158\n        /* \"#utility.yul\":2218:2223   */\n      dup2\n        /* \"#utility.yul\":2191:2224   */\n      tag_110\n      jump\t// in\n    tag_158:\n        /* \"#utility.yul\":2091:2230   */\n      swap3\n      swap2\n      pop\n      pop\n      jump\t// out\n        /* \"#utility.yul\":2236:2565   */\n    tag_39:\n        /* \"#utility.yul\":2295:2301   */\n      0x00\n        /* \"#utility.yul\":2344:2346   */\n      0x20\n        /* \"#utility.yul\":2332:2341   */\n      dup3\n        /* \"#utility.yul\":2323:2330   */\n      dup5\n        /* \"#utility.yul\":2319:2342   */\n      sub\n        /* \"#utility.yul\":2315:2347   */\n      slt\n        /* \"#utility.yul\":2312:2431   */\n      iszero\n      tag_160\n      jumpi\n        /* \"#utility.yul\":2350:2429   */\n      tag_161\n      tag_101\n      jump\t// in\n    tag_161:\n        /* \"#utility.yul\":2312:2431   */\n    tag_160:\n        /* \"#utility.yul\":2470:2471   */\n      0x00\n        /* \"#utility.yul\":2495:2548   */\n      tag_162\n        /* \"#utility.yul\":2540:2547   */\n      dup5\n        /* \"#utility.yul\":2531:2537   */\n      dup3\n        /* \"#utility.yul\":2520:2529   */\n      dup6\n        /* \"#utility.yul\":2516:2538   */\n      add\n        /* \"#utility.yul\":2495:2548   */\n      tag_111\n      jump\t// in\n    tag_162:\n        /* \"#utility.yul\":2485:2548   */\n      swap2\n      pop\n        /* \"#utility.yul\":2441:2558   */\n      pop\n        /* \"#utility.yul\":2236:2565   */\n      swap3\n      swap2\n      pop\n      pop\n      jump\t// out\n        /* \"#utility.yul\":2571:2740   */\n    tag_112:\n        /* \"#utility.yul\":2655:2666   */\n      0x00\n        /* \"#utility.yul\":2689:2695   */\n      dup3\n        /* \"#utility.yul\":2684:2687   */\n      dup3\n        /* \"#utility.yul\":2677:2696   */\n      mstore\n        /* \"#utility.yul\":2729:2733   */\n      0x20\n        /* \"#utility.yul\":2724:2727   */\n      dup3\n        /* \"#utility.yul\":2720:2734   */\n      add\n        /* \"#utility.yul\":2705:2734   */\n      swap1\n      pop\n        /* \"#utility.yul\":2571:2740   */\n      swap3\n      swap2\n      pop\n      pop\n      jump\t// out\n        /* \"#utility.yul\":2746:2902   */\n    tag_113:\n        /* \"#utility.yul\":2886:2894   */\n      0x62726f6b69650000000000000000000000000000000000000000000000000000\n        /* \"#utility.yul\":2882:2883   */\n      0x00\n        /* \"#utility.yul\":2874:2880   */\n      dup3\n        /* \"#utility.yul\":2870:2884   */\n      add\n        /* \"#utility.yul\":2863:2895   */\n      mstore\n        /* \"#utility.yul\":2746:2902   */\n      pop\n      jump\t// out\n        /* \"#utility.yul\":2908:3273   */\n    tag_114:\n        /* \"#utility.yul\":3050:3053   */\n      0x00\n        /* \"#utility.yul\":3071:3137   */\n      tag_166\n        /* \"#utility.yul\":3135:3136   */\n      0x06\n        /* \"#utility.yul\":3130:3133   */\n      dup4\n        /* \"#utility.yul\":3071:3137   */\n      tag_112\n      jump\t// in\n    tag_166:\n        /* \"#utility.yul\":3064:3137   */\n      swap2\n      pop\n        /* \"#utility.yul\":3146:3239   */\n      tag_167\n        /* \"#utility.yul\":3235:3238   */\n      dup3\n        /* \"#utility.yul\":3146:3239   */\n      tag_113\n      jump\t// in\n    tag_167:\n        /* \"#utility.yul\":3264:3266   */\n      0x20\n        /* \"#utility.yul\":3259:3262   */\n      dup3\n        /* \"#utility.yul\":3255:3267   */\n      add\n        /* \"#utility.yul\":3248:3267   */\n      swap1\n      pop\n        /* \"#utility.yul\":2908:3273   */\n      swap2\n      swap1\n      pop\n      jump\t// out\n        /* \"#utility.yul\":3279:3698   */\n    tag_47:\n        /* \"#utility.yul\":3445:3449   */\n      0x00\n        /* \"#utility.yul\":3483:3485   */\n      0x20\n        /* \"#utility.yul\":3472:3481   */\n      dup3\n        /* \"#utility.yul\":3468:3486   */\n      add\n        /* \"#utility.yul\":3460:3486   */\n      swap1\n      pop\n        /* \"#utility.yul\":3532:3541   */\n      dup2\n        /* \"#utility.yul\":3526:3530   */\n      dup2\n        /* \"#utility.yul\":3522:3542   */\n      sub\n        /* \"#utility.yul\":3518:3519   */\n      0x00\n        /* \"#utility.yul\":3507:3516   */\n      dup4\n        /* \"#utility.yul\":3503:3520   */\n      add\n        /* \"#utility.yul\":3496:3543   */\n      mstore\n        /* \"#utility.yul\":3560:3691   */\n      tag_169\n        /* \"#utility.yul\":3686:3690   */\n      dup2\n        /* \"#utility.yul\":3560:3691   */\n      tag_114\n      jump\t// in\n    tag_169:\n        /* \"#utility.yul\":3552:3691   */\n      swap1\n      pop\n        /* \"#utility.yul\":3279:3698   */\n      swap2\n      swap1\n      pop\n      jump\t// out\n        /* \"#utility.yul\":3704:3884   */\n    tag_115:\n        /* \"#utility.yul\":3752:3829   */\n      0x4e487b7100000000000000000000000000000000000000000000000000000000\n        /* \"#utility.yul\":3749:3750   */\n      0x00\n        /* \"#utility.yul\":3742:3830   */\n      mstore\n        /* \"#utility.yul\":3849:3853   */\n      0x11\n        /* \"#utility.yul\":3846:3847   */\n      0x04\n        /* \"#utility.yul\":3839:3854   */\n      mstore\n        /* \"#utility.yul\":3873:3877   */\n      0x24\n        /* \"#utility.yul\":3870:3871   */\n      0x00\n        /* \"#utility.yul\":3863:3878   */\n      revert\n        /* \"#utility.yul\":3890:4081   */\n    tag_50:\n        /* \"#utility.yul\":3930:3933   */\n      0x00\n        /* \"#utility.yul\":3949:3969   */\n      tag_172\n        /* \"#utility.yul\":3967:3968   */\n      dup3\n        /* \"#utility.yul\":3949:3969   */\n      tag_107\n      jump\t// in\n    tag_172:\n        /* \"#utility.yul\":3944:3969   */\n      swap2\n      pop\n        /* \"#utility.yul\":3983:4003   */\n      tag_173\n        /* \"#utility.yul\":4001:4002   */\n      dup4\n        /* \"#utility.yul\":3983:4003   */\n      tag_107\n      jump\t// in\n    tag_173:\n        /* \"#utility.yul\":3978:4003   */\n      swap3\n      pop\n        /* \"#utility.yul\":4026:4027   */\n      dup3\n        /* \"#utility.yul\":4023:4024   */\n      dup3\n        /* \"#utility.yul\":4019:4028   */\n      add\n        /* \"#utility.yul\":4012:4028   */\n      swap1\n      pop\n        /* \"#utility.yul\":4047:4050   */\n      dup1\n        /* \"#utility.yul\":4044:4045   */\n      dup3\n        /* \"#utility.yul\":4041:4051   */\n      gt\n        /* \"#utility.yul\":4038:4074   */\n      iszero\n      tag_174\n      jumpi\n        /* \"#utility.yul\":4054:4072   */\n      tag_175\n      tag_115\n      jump\t// in\n    tag_175:\n        /* \"#utility.yul\":4038:4074   */\n    tag_174:\n        /* \"#utility.yul\":3890:4081   */\n      swap3\n      swap2\n      pop\n      pop\n      jump\t// out\n        /* \"#utility.yul\":4087:4267   */\n    tag_59:\n        /* \"#utility.yul\":4135:4212   */\n      0x4e487b7100000000000000000000000000000000000000000000000000000000\n        /* \"#utility.yul\":4132:4133   */\n      0x00\n        /* \"#utility.yul\":4125:4213   */\n      mstore\n        /* \"#utility.yul\":4232:4236   */\n      0x32\n        /* \"#utility.yul\":4229:4230   */\n      0x04\n        /* \"#utility.yul\":4222:4237   */\n      mstore\n        /* \"#utility.yul\":4256:4260   */\n      0x24\n        /* \"#utility.yul\":4253:4254   */\n      0x00\n        /* \"#utility.yul\":4246:4261   */\n      revert\n        /* \"#utility.yul\":4273:4453   */\n    tag_63:\n        /* \"#utility.yul\":4321:4398   */\n      0x4e487b7100000000000000000000000000000000000000000000000000000000\n        /* \"#utility.yul\":4318:4319   */\n      0x00\n        /* \"#utility.yul\":4311:4399   */\n      mstore\n        /* \"#utility.yul\":4418:4422   */\n      0x41\n        /* \"#utility.yul\":4415:4416   */\n      0x04\n        /* \"#utility.yul\":4408:4423   */\n      mstore\n        /* \"#utility.yul\":4442:4446   */\n      0x24\n        /* \"#utility.yul\":4439:4440   */\n      0x00\n        /* \"#utility.yul\":4432:4447   */\n      revert\n        /* \"#utility.yul\":4459:4606   */\n    tag_116:\n        /* \"#utility.yul\":4560:4571   */\n      0x00\n        /* \"#utility.yul\":4597:4600   */\n      dup2\n        /* \"#utility.yul\":4582:4600   */\n      swap1\n      pop\n        /* \"#utility.yul\":4459:4606   */\n      swap3\n      swap2\n      pop\n      pop\n      jump\t// out\n        /* \"#utility.yul\":4612:4726   */\n    tag_117:\n      pop\n      jump\t// out\n        /* \"#utility.yul\":4732:5130   */\n    tag_118:\n        /* \"#utility.yul\":4891:4894   */\n      0x00\n        /* \"#utility.yul\":4912:4995   */\n      tag_181\n        /* \"#utility.yul\":4993:4994   */\n      0x00\n        /* \"#utility.yul\":4988:4991   */\n      dup4\n        /* \"#utility.yul\":4912:4995   */\n      tag_116\n      jump\t// in\n    tag_181:\n        /* \"#utility.yul\":4905:4995   */\n      swap2\n      pop\n        /* \"#utility.yul\":5004:5097   */\n      tag_182\n        /* \"#utility.yul\":5093:5096   */\n      dup3\n        /* \"#utility.yul\":5004:5097   */\n      tag_117\n      jump\t// in\n    tag_182:\n        /* \"#utility.yul\":5122:5123   */\n      0x00\n        /* \"#utility.yul\":5117:5120   */\n      dup3\n        /* \"#utility.yul\":5113:5124   */\n      add\n        /* \"#utility.yul\":5106:5124   */\n      swap1\n      pop\n        /* \"#utility.yul\":4732:5130   */\n      swap2\n      swap1\n      pop\n      jump\t// out\n        /* \"#utility.yul\":5136:5515   */\n    tag_68:\n        /* \"#utility.yul\":5320:5323   */\n      0x00\n        /* \"#utility.yul\":5342:5489   */\n      tag_184\n        /* \"#utility.yul\":5485:5488   */\n      dup3\n        /* \"#utility.yul\":5342:5489   */\n      tag_118\n      jump\t// in\n    tag_184:\n        /* \"#utility.yul\":5335:5489   */\n      swap2\n      pop\n        /* \"#utility.yul\":5506:5509   */\n      dup2\n        /* \"#utility.yul\":5499:5509   */\n      swap1\n      pop\n        /* \"#utility.yul\":5136:5515   */\n      swap2\n      swap1\n      pop\n      jump\t// out\n        /* \"#utility.yul\":5521:5673   */\n    tag_119:\n        /* \"#utility.yul\":5661:5665   */\n      0x6767000000000000000000000000000000000000000000000000000000000000\n        /* \"#utility.yul\":5657:5658   */\n      0x00\n        /* \"#utility.yul\":5649:5655   */\n      dup3\n        /* \"#utility.yul\":5645:5659   */\n      add\n        /* \"#utility.yul\":5638:5666   */\n      mstore\n        /* \"#utility.yul\":5521:5673   */\n      pop\n      jump\t// out\n        /* \"#utility.yul\":5679:6044   */\n    tag_120:\n        /* \"#utility.yul\":5821:5824   */\n      0x00\n        /* \"#utility.yul\":5842:5908   */\n      tag_187\n        /* \"#utility.yul\":5906:5907   */\n      0x02\n        /* \"#utility.yul\":5901:5904   */\n      dup4\n        /* \"#utility.yul\":5842:5908   */\n      tag_112\n      jump\t// in\n    tag_187:\n        /* \"#utility.yul\":5835:5908   */\n      swap2\n      pop\n        /* \"#utility.yul\":5917:6010   */\n      tag_188\n        /* \"#utility.yul\":6006:6009   */\n      dup3\n        /* \"#utility.yul\":5917:6010   */\n      tag_119\n      jump\t// in\n    tag_188:\n        /* \"#utility.yul\":6035:6037   */\n      0x20\n        /* \"#utility.yul\":6030:6033   */\n      dup3\n        /* \"#utility.yul\":6026:6038   */\n      add\n        /* \"#utility.yul\":6019:6038   */\n      swap1\n      pop\n        /* \"#utility.yul\":5679:6044   */\n      swap2\n      swap1\n      pop\n      jump\t// out\n        /* \"#utility.yul\":6050:6469   */\n    tag_74:\n        /* \"#utility.yul\":6216:6220   */\n      0x00\n        /* \"#utility.yul\":6254:6256   */\n      0x20\n        /* \"#utility.yul\":6243:6252   */\n      dup3\n        /* \"#utility.yul\":6239:6257   */\n      add\n        /* \"#utility.yul\":6231:6257   */\n      swap1\n      pop\n        /* \"#utility.yul\":6303:6312   */\n      dup2\n        /* \"#utility.yul\":6297:6301   */\n      dup2\n        /* \"#utility.yul\":6293:6313   */\n      sub\n        /* \"#utility.yul\":6289:6290   */\n      0x00\n        /* \"#utility.yul\":6278:6287   */\n      dup4\n        /* \"#utility.yul\":6274:6291   */\n      add\n        /* \"#utility.yul\":6267:6314   */\n      mstore\n        /* \"#utility.yul\":6331:6462   */\n      tag_190\n        /* \"#utility.yul\":6457:6461   */\n      dup2\n        /* \"#utility.yul\":6331:6462   */\n      tag_120\n      jump\t// in\n    tag_190:\n        /* \"#utility.yul\":6323:6462   */\n      swap1\n      pop\n        /* \"#utility.yul\":6050:6469   */\n      swap2\n      swap1\n      pop\n      jump\t// out\n        /* \"#utility.yul\":6475:6708   */\n    tag_76:\n        /* \"#utility.yul\":6514:6517   */\n      0x00\n        /* \"#utility.yul\":6537:6561   */\n      tag_192\n        /* \"#utility.yul\":6555:6560   */\n      dup3\n        /* \"#utility.yul\":6537:6561   */\n      tag_107\n      jump\t// in\n    tag_192:\n        /* \"#utility.yul\":6528:6561   */\n      swap2\n      pop\n        /* \"#utility.yul\":6583:6649   */\n      0xffffffffffffffffffffffffffffffffffffffffffffffffffffffffffffffff\n        /* \"#utility.yul\":6576:6581   */\n      dup3\n        /* \"#utility.yul\":6573:6650   */\n      sub\n        /* \"#utility.yul\":6570:6673   */\n      tag_193\n      jumpi\n        /* \"#utility.yul\":6653:6671   */\n      tag_194\n      tag_115\n      jump\t// in\n    tag_194:\n        /* \"#utility.yul\":6570:6673   */\n    tag_193:\n        /* \"#utility.yul\":6700:6701   */\n      0x01\n        /* \"#utility.yul\":6693:6698   */\n      dup3\n        /* \"#utility.yul\":6689:6702   */\n      add\n        /* \"#utility.yul\":6682:6702   */\n      swap1\n      pop\n        /* \"#utility.yul\":6475:6708   */\n      swap2\n      swap1\n      pop\n      jump\t// out\n        /* \"#utility.yul\":6714:7124   */\n    tag_83:\n        /* \"#utility.yul\":6754:6761   */\n      0x00\n        /* \"#utility.yul\":6777:6797   */\n      tag_196\n        /* \"#utility.yul\":6795:6796   */\n      dup3\n        /* \"#utility.yul\":6777:6797   */\n      tag_107\n      jump\t// in\n    tag_196:\n        /* \"#utility.yul\":6772:6797   */\n      swap2\n      pop\n        /* \"#utility.yul\":6811:6831   */\n      tag_197\n        /* \"#utility.yul\":6829:6830   */\n      dup4\n        /* \"#utility.yul\":6811:6831   */\n      tag_107\n      jump\t// in\n    tag_197:\n        /* \"#utility.yul\":6806:6831   */\n      swap3\n      pop\n        /* \"#utility.yul\":6866:6867   */\n      dup3\n        /* \"#utility.yul\":6863:6864   */\n      dup3\n        /* \"#utility.yul\":6859:6868   */\n      mul\n        /* \"#utility.yul\":6888:6918   */\n      tag_198\n        /* \"#utility.yul\":6906:6917   */\n      dup2\n        /* \"#utility.yul\":6888:6918   */\n      tag_107\n      jump\t// in\n    tag_198:\n        /* \"#utility.yul\":6877:6918   */\n      swap2\n      pop\n        /* \"#utility.yul\":7067:7068   */\n      dup3\n        /* \"#utility.yul\":7058:7065   */\n      dup3\n        /* \"#utility.yul\":7054:7069   */\n      div\n        /* \"#utility.yul\":7051:7052   */\n      dup5\n        /* \"#utility.yul\":7048:7070   */\n      eq\n        /* \"#utility.yul\":7028:7029   */\n      dup4\n        /* \"#utility.yul\":7021:7030   */\n      iszero\n        /* \"#utility.yul\":7001:7084   */\n      or\n        /* \"#utility.yul\":6978:7117   */\n      tag_199\n      jumpi\n        /* \"#utility.yul\":7097:7115   */\n      tag_200\n      tag_115\n      jump\t// in\n    tag_200:\n        /* \"#utility.yul\":6978:7117   */\n    tag_199:\n        /* \"#utility.yul\":6762:7124   */\n      pop\n        /* \"#utility.yul\":6714:7124   */\n      swap3\n      swap2\n      pop\n      pop\n      jump\t// out\n        /* \"#utility.yul\":7130:7310   */\n    tag_121:\n        /* \"#utility.yul\":7178:7255   */\n      0x4e487b7100000000000000000000000000000000000000000000000000000000\n        /* \"#utility.yul\":7175:7176   */\n      0x00\n        /* \"#utility.yul\":7168:7256   */\n      mstore\n        /* \"#utility.yul\":7275:7279   */\n      0x12\n        /* \"#utility.yul\":7272:7273   */\n      0x04\n        /* \"#utility.yul\":7265:7280   */\n      mstore\n        /* \"#utility.yul\":7299:7303   */\n      0x24\n        /* \"#utility.yul\":7296:7297   */\n      0x00\n        /* \"#utility.yul\":7289:7304   */\n      revert\n        /* \"#utility.yul\":7316:7501   */\n    tag_85:\n        /* \"#utility.yul\":7356:7357   */\n      0x00\n        /* \"#utility.yul\":7373:7393   */\n      tag_203\n        /* \"#utility.yul\":7391:7392   */\n      dup3\n        /* \"#utility.yul\":7373:7393   */\n      tag_107\n      jump\t// in\n    tag_203:\n        /* \"#utility.yul\":7368:7393   */\n      swap2\n      pop\n        /* \"#utility.yul\":7407:7427   */\n      tag_204\n        /* \"#utility.yul\":7425:7426   */\n      dup4\n        /* \"#utility.yul\":7407:7427   */\n      tag_107\n      jump\t// in\n    tag_204:\n        /* \"#utility.yul\":7402:7427   */\n      swap3\n      pop\n        /* \"#utility.yul\":7446:7447   */\n      dup3\n        /* \"#utility.yul\":7436:7471   */\n      tag_205\n      jumpi\n        /* \"#utility.yul\":7451:7469   */\n      tag_206\n      tag_121\n      jump\t// in\n    tag_206:\n        /* \"#utility.yul\":7436:7471   */\n    tag_205:\n        /* \"#utility.yul\":7493:7494   */\n      dup3\n        /* \"#utility.yul\":7490:7491   */\n      dup3\n        /* \"#utility.yul\":7486:7495   */\n      div\n        /* \"#utility.yul\":7481:7495   */\n      swap1\n      pop\n        /* \"#utility.yul\":7316:7501   */\n      swap3\n      swap2\n      pop\n      pop\n      jump\t// out\n        /* \"#utility.yul\":7507:7612   */\n    tag_122:\n        /* \"#utility.yul\":7543:7550   */\n      0x00\n        /* \"#utility.yul\":7583:7605   */\n      0xffffffffffffffffffff\n        /* \"#utility.yul\":7576:7581   */\n      dup3\n        /* \"#utility.yul\":7572:7606   */\n      and\n        /* \"#utility.yul\":7561:7606   */\n      swap1\n      pop\n        /* \"#utility.yul\":7507:7612   */\n      swap2\n      swap1\n      pop\n      jump\t// out\n        /* \"#utility.yul\":7618:7738   */\n    tag_123:\n        /* \"#utility.yul\":7690:7713   */\n      tag_209\n        /* \"#utility.yul\":7707:7712   */\n      dup2\n        /* \"#utility.yul\":7690:7713   */\n      tag_122\n      jump\t// in\n    tag_209:\n        /* \"#utility.yul\":7683:7688   */\n      dup2\n        /* \"#utility.yul\":7680:7714   */\n      eq\n        /* \"#utility.yul\":7670:7732   */\n      tag_210\n      jumpi\n        /* \"#utility.yul\":7728:7729   */\n      0x00\n        /* \"#utility.yul\":7725:7726   */\n      dup1\n        /* \"#utility.yul\":7718:7730   */\n      revert\n        /* \"#utility.yul\":7670:7732   */\n    tag_210:\n        /* \"#utility.yul\":7618:7738   */\n      pop\n      jump\t// out\n        /* \"#utility.yul\":7744:7885   */\n    tag_124:\n        /* \"#utility.yul\":7800:7805   */\n      0x00\n        /* \"#utility.yul\":7831:7837   */\n      dup2\n        /* \"#utility.yul\":7825:7838   */\n      mload\n        /* \"#utility.yul\":7816:7838   */\n      swap1\n      pop\n        /* \"#utility.yul\":7847:7879   */\n      tag_212\n        /* \"#utility.yul\":7873:7878   */\n      dup2\n        /* \"#utility.yul\":7847:7879   */\n      tag_123\n      jump\t// in\n    tag_212:\n        /* \"#utility.yul\":7744:7885   */\n      swap3\n      swap2\n      pop\n      pop\n      jump\t// out\n        /* \"#utility.yul\":7891:7967   */\n    tag_125:\n        /* \"#utility.yul\":7927:7934   */\n      0x00\n        /* \"#utility.yul\":7956:7961   */\n      dup2\n        /* \"#utility.yul\":7945:7961   */\n      swap1\n      pop\n        /* \"#utility.yul\":7891:7967   */\n      swap2\n      swap1\n      pop\n      jump\t// out\n        /* \"#utility.yul\":7973:8093   */\n    tag_126:\n        /* \"#utility.yul\":8045:8068   */\n      tag_215\n        /* \"#utility.yul\":8062:8067   */\n      dup2\n        /* \"#utility.yul\":8045:8068   */\n      tag_125\n      jump\t// in\n    tag_215:\n        /* \"#utility.yul\":8038:8043   */\n      dup2\n        /* \"#utility.yul\":8035:8069   */\n      eq\n        /* \"#utility.yul\":8025:8087   */\n      tag_216\n      jumpi\n        /* \"#utility.yul\":8083:8084   */\n      0x00\n        /* \"#utility.yul\":8080:8081   */\n      dup1\n        /* \"#utility.yul\":8073:8085   */\n      revert\n        /* \"#utility.yul\":8025:8087   */\n    tag_216:\n        /* \"#utility.yul\":7973:8093   */\n      pop\n      jump\t// out\n        /* \"#utility.yul\":8099:8240   */\n    tag_127:\n        /* \"#utility.yul\":8155:8160   */\n      0x00\n        /* \"#utility.yul\":8186:8192   */\n      dup2\n        /* \"#utility.yul\":8180:8193   */\n      mload\n        /* \"#utility.yul\":8171:8193   */\n      swap1\n      pop\n        /* \"#utility.yul\":8202:8234   */\n      tag_218\n        /* \"#utility.yul\":8228:8233   */\n      dup2\n        /* \"#utility.yul\":8202:8234   */\n      tag_126\n      jump\t// in\n    tag_218:\n        /* \"#utility.yul\":8099:8240   */\n      swap3\n      swap2\n      pop\n      pop\n      jump\t// out\n        /* \"#utility.yul\":8246:8389   */\n    tag_128:\n        /* \"#utility.yul\":8303:8308   */\n      0x00\n        /* \"#utility.yul\":8334:8340   */\n      dup2\n        /* \"#utility.yul\":8328:8341   */\n      mload\n        /* \"#utility.yul\":8319:8341   */\n      swap1\n      pop\n        /* \"#utility.yul\":8350:8383   */\n      tag_220\n        /* \"#utility.yul\":8377:8382   */\n      dup2\n        /* \"#utility.yul\":8350:8383   */\n      tag_110\n      jump\t// in\n    tag_220:\n        /* \"#utility.yul\":8246:8389   */\n      swap3\n      swap2\n      pop\n      pop\n      jump\t// out\n        /* \"#utility.yul\":8395:9366   */\n    tag_90:\n        /* \"#utility.yul\":8498:8504   */\n      0x00\n        /* \"#utility.yul\":8506:8512   */\n      dup1\n        /* \"#utility.yul\":8514:8520   */\n      0x00\n        /* \"#utility.yul\":8522:8528   */\n      dup1\n        /* \"#utility.yul\":8530:8536   */\n      0x00\n        /* \"#utility.yul\":8579:8582   */\n      0xa0\n        /* \"#utility.yul\":8567:8576   */\n      dup7\n        /* \"#utility.yul\":8558:8565   */\n      dup9\n        /* \"#utility.yul\":8554:8577   */\n      sub\n        /* \"#utility.yul\":8550:8583   */\n      slt\n        /* \"#utility.yul\":8547:8667   */\n      iszero\n      tag_222\n      jumpi\n        /* \"#utility.yul\":8586:8665   */\n      tag_223\n      tag_101\n      jump\t// in\n    tag_223:\n        /* \"#utility.yul\":8547:8667   */\n    tag_222:\n        /* \"#utility.yul\":8706:8707   */\n      0x00\n        /* \"#utility.yul\":8731:8794   */\n      tag_224\n        /* \"#utility.yul\":8786:8793   */\n      dup9\n        /* \"#utility.yul\":8777:8783   */\n      dup3\n        /* \"#utility.yul\":8766:8775   */\n      dup10\n        /* \"#utility.yul\":8762:8784   */\n      add\n        /* \"#utility.yul\":8731:8794   */\n      tag_124\n      jump\t// in\n    tag_224:\n        /* \"#utility.yul\":8721:8794   */\n      swap6\n      pop\n        /* \"#utility.yul\":8677:8804   */\n      pop\n        /* \"#utility.yul\":8843:8845   */\n      0x20\n        /* \"#utility.yul\":8869:8932   */\n      tag_225\n        /* \"#utility.yul\":8924:8931   */\n      dup9\n        /* \"#utility.yul\":8915:8921   */\n      dup3\n        /* \"#utility.yul\":8904:8913   */\n      dup10\n        /* \"#utility.yul\":8900:8922   */\n      add\n        /* \"#utility.yul\":8869:8932   */\n      tag_127\n      jump\t// in\n    tag_225:\n        /* \"#utility.yul\":8859:8932   */\n      swap5\n      pop\n        /* \"#utility.yul\":8814:8942   */\n      pop\n        /* \"#utility.yul\":8981:8983   */\n      0x40\n        /* \"#utility.yul\":9007:9071   */\n      tag_226\n        /* \"#utility.yul\":9063:9070   */\n      dup9\n        /* \"#utility.yul\":9054:9060   */\n      dup3\n        /* \"#utility.yul\":9043:9052   */\n      dup10\n        /* \"#utility.yul\":9039:9061   */\n      add\n        /* \"#utility.yul\":9007:9071   */\n      tag_128\n      jump\t// in\n    tag_226:\n        /* \"#utility.yul\":8997:9071   */\n      swap4\n      pop\n        /* \"#utility.yul\":8952:9081   */\n      pop\n        /* \"#utility.yul\":9120:9122   */\n      0x60\n        /* \"#utility.yul\":9146:9210   */\n      tag_227\n        /* \"#utility.yul\":9202:9209   */\n      dup9\n        /* \"#utility.yul\":9193:9199   */\n      dup3\n        /* \"#utility.yul\":9182:9191   */\n      dup10\n        /* \"#utility.yul\":9178:9200   */\n      add\n        /* \"#utility.yul\":9146:9210   */\n      tag_128\n      jump\t// in\n    tag_227:\n        /* \"#utility.yul\":9136:9210   */\n      swap3\n      pop\n        /* \"#utility.yul\":9091:9220   */\n      pop\n        /* \"#utility.yul\":9259:9262   */\n      0x80\n        /* \"#utility.yul\":9286:9349   */\n      tag_228\n        /* \"#utility.yul\":9341:9348   */\n      dup9\n        /* \"#utility.yul\":9332:9338   */\n      dup3\n        /* \"#utility.yul\":9321:9330   */\n      dup10\n        /* \"#utility.yul\":9317:9339   */\n      add\n        /* \"#utility.yul\":9286:9349   */\n      tag_124\n      jump\t// in\n    tag_228:\n        /* \"#utility.yul\":9276:9349   */\n      swap2\n      pop\n        /* \"#utility.yul\":9230:9359   */\n      pop\n        /* \"#utility.yul\":8395:9366   */\n      swap3\n      swap6\n      pop\n      swap3\n      swap6\n      swap1\n      swap4\n      pop\n      jump\t// out\n        /* \"#utility.yul\":9372:9928   */\n    tag_92:\n        /* \"#utility.yul\":9411:9418   */\n      0x00\n        /* \"#utility.yul\":9434:9453   */\n      tag_230\n        /* \"#utility.yul\":9451:9452   */\n      dup3\n        /* \"#utility.yul\":9434:9453   */\n      tag_125\n      jump\t// in\n    tag_230:\n        /* \"#utility.yul\":9429:9453   */\n      swap2\n      pop\n        /* \"#utility.yul\":9467:9486   */\n      tag_231\n        /* \"#utility.yul\":9484:9485   */\n      dup4\n        /* \"#utility.yul\":9467:9486   */\n      tag_125\n      jump\t// in\n    tag_231:\n        /* \"#utility.yul\":9462:9486   */\n      swap3\n      pop\n        /* \"#utility.yul\":9521:9522   */\n      dup3\n        /* \"#utility.yul\":9518:9519   */\n      dup3\n        /* \"#utility.yul\":9514:9523   */\n      mul\n        /* \"#utility.yul\":9543:9572   */\n      tag_232\n        /* \"#utility.yul\":9560:9571   */\n      dup2\n        /* \"#utility.yul\":9543:9572   */\n      tag_125\n      jump\t// in\n    tag_232:\n        /* \"#utility.yul\":9532:9572   */\n      swap2\n      pop\n        /* \"#utility.yul\":9630:9696   */\n      0x8000000000000000000000000000000000000000000000000000000000000000\n        /* \"#utility.yul\":9627:9628   */\n      dup5\n        /* \"#utility.yul\":9624:9697   */\n      eq\n        /* \"#utility.yul\":9620:9621   */\n      0x00\n        /* \"#utility.yul\":9617:9618   */\n      dup5\n        /* \"#utility.yul\":9613:9622   */\n      slt\n        /* \"#utility.yul\":9609:9698   */\n      and\n        /* \"#utility.yul\":9606:9721   */\n      iszero\n      tag_233\n      jumpi\n        /* \"#utility.yul\":9701:9719   */\n      tag_234\n      tag_115\n      jump\t// in\n    tag_234:\n        /* \"#utility.yul\":9606:9721   */\n    tag_233:\n        /* \"#utility.yul\":9871:9872   */\n      dup3\n        /* \"#utility.yul\":9862:9869   */\n      dup3\n        /* \"#utility.yul\":9857:9873   */\n      sdiv\n        /* \"#utility.yul\":9854:9855   */\n      dup5\n        /* \"#utility.yul\":9851:9874   */\n      eq\n        /* \"#utility.yul\":9831:9832   */\n      dup4\n        /* \"#utility.yul\":9824:9833   */\n      iszero\n        /* \"#utility.yul\":9804:9888   */\n      or\n        /* \"#utility.yul\":9781:9921   */\n      tag_235\n      jumpi\n        /* \"#utility.yul\":9901:9919   */\n      tag_236\n      tag_115\n      jump\t// in\n    tag_236:\n        /* \"#utility.yul\":9781:9921   */\n    tag_235:\n        /* \"#utility.yul\":9419:9928   */\n      pop\n        /* \"#utility.yul\":9372:9928   */\n      swap3\n      swap2\n      pop\n      pop\n      jump\t// out\n\n    auxdata: 0xa2646970667358221220906191464423994b9ba0e88a205fafdb5d227f4f17a8082dc3ba8a50461dad2664736f6c63430008130033\n}\n",
				"bytecode": {
					"linkReferences": {},
					"object": "60a060405234801561001057600080fd5b503373ffffffffffffffffffffffffffffffffffffffff1660808173ffffffffffffffffffffffffffffffffffffffff1681525050608051610c936100676000396000818161028b01526104cb0152610c936000f3fe6080604052600436106100595760003560e01c80630ce3f682146100725780633ccfd60b146100af578063b60d4288146100c6578063dba6335f146100d0578063e1ab98ba146100fb578063eab95e371461012657610068565b3661006857610066610163565b005b610070610163565b005b34801561007e57600080fd5b506100996004803603810190610094919061071f565b610271565b6040516100a69190610765565b60405180910390f35b3480156100bb57600080fd5b506100c4610289565b005b6100ce610163565b005b3480156100dc57600080fd5b506100e56104c9565b6040516100f2919061078f565b60405180910390f35b34801561010757600080fd5b506101106104ed565b60405161011d9190610765565b60405180910390f35b34801561013257600080fd5b5061014d600480360381019061014891906107d6565b6104f9565b60405161015a919061078f565b60405180910390f35b670de0b6b3a764000061017534610538565b10156101b6576040517f08c379a00000000000000000000000000000000000000000000000000000000081526004016101ad90610860565b60405180910390fd5b6000339080600181540180825580915050600190039060005260206000200160009091909190916101000a81548173ffffffffffffffffffffffffffffffffffffffff021916908373ffffffffffffffffffffffffffffffffffffffff16021790555034600160003373ffffffffffffffffffffffffffffffffffffffff1673ffffffffffffffffffffffffffffffffffffffff168152602001908152602001600020600082825461026891906108af565b92505081905550565b60016020528060005260406000206000915090505481565b7f000000000000000000000000000000000000000000000000000000000000000073ffffffffffffffffffffffffffffffffffffffff163373ffffffffffffffffffffffffffffffffffffffff161461030e576040517f6d2d3ef800000000000000000000000000000000000000000000000000000000815260040160405180910390fd5b60005b6000805490508110156104c6576000808281548110610333576103326108e3565b5b9060005260206000200160009054906101000a900473ffffffffffffffffffffffffffffffffffffffff1690506000600160008373ffffffffffffffffffffffffffffffffffffffff1673ffffffffffffffffffffffffffffffffffffffff16815260200190815260200160002081905550600067ffffffffffffffff8111156103c0576103bf610912565b5b6040519080825280602002602001820160405280156103ee5781602001602082028036833780820191505090505b5060009080519060200190610404929190610615565b5060003373ffffffffffffffffffffffffffffffffffffffff164760405161042b90610972565b60006040518083038185875af1925050503d8060008114610468576040519150601f19603f3d011682016040523d82523d6000602084013e61046d565b606091505b50509050806104b1576040517f08c379a00000000000000000000000000000000000000000000000000000000081526004016104a8906109d3565b60405180910390fd5b505080806104be906109f3565b915050610311565b50565b7f000000000000000000000000000000000000000000000000000000000000000081565b670de0b6b3a764000081565b6000818154811061050957600080fd5b906000526020600020016000915054906101000a900473ffffffffffffffffffffffffffffffffffffffff1681565b600080670de0b6b3a764000061054c61056c565b846105579190610a3b565b6105619190610aac565b905080915050919050565b600080735f4ec3df9cbd43714fe2740f5e3616155c5b8419905060008173ffffffffffffffffffffffffffffffffffffffff1663feaf968c6040518163ffffffff1660e01b815260040160a060405180830381865afa1580156105d3573d6000803e3d6000fd5b505050506040513d601f19601f820116820180604052508101906105f79190610b6a565b5050509150506402540be4008161060e9190610be5565b9250505090565b82805482825590600052602060002090810192821561068e579160200282015b8281111561068d5782518260006101000a81548173ffffffffffffffffffffffffffffffffffffffff021916908373ffffffffffffffffffffffffffffffffffffffff16021790555091602001919060010190610635565b5b50905061069b919061069f565b5090565b5b808211156106b85760008160009055506001016106a0565b5090565b600080fd5b600073ffffffffffffffffffffffffffffffffffffffff82169050919050565b60006106ec826106c1565b9050919050565b6106fc816106e1565b811461070757600080fd5b50565b600081359050610719816106f3565b92915050565b600060208284031215610735576107346106bc565b5b60006107438482850161070a565b91505092915050565b6000819050919050565b61075f8161074c565b82525050565b600060208201905061077a6000830184610756565b92915050565b610789816106e1565b82525050565b60006020820190506107a46000830184610780565b92915050565b6107b38161074c565b81146107be57600080fd5b50565b6000813590506107d0816107aa565b92915050565b6000602082840312156107ec576107eb6106bc565b5b60006107fa848285016107c1565b91505092915050565b600082825260208201905092915050565b7f62726f6b69650000000000000000000000000000000000000000000000000000600082015250565b600061084a600683610803565b915061085582610814565b602082019050919050565b600060208201905081810360008301526108798161083d565b9050919050565b7f4e487b7100000000000000000000000000000000000000000000000000000000600052601160045260246000fd5b60006108ba8261074c565b91506108c58361074c565b92508282019050808211156108dd576108dc610880565b5b92915050565b7f4e487b7100000000000000000000000000000000000000000000000000000000600052603260045260246000fd5b7f4e487b7100000000000000000000000000000000000000000000000000000000600052604160045260246000fd5b600081905092915050565b50565b600061095c600083610941565b91506109678261094c565b600082019050919050565b600061097d8261094f565b9150819050919050565b7f6767000000000000000000000000000000000000000000000000000000000000600082015250565b60006109bd600283610803565b91506109c882610987565b602082019050919050565b600060208201905081810360008301526109ec816109b0565b9050919050565b60006109fe8261074c565b91507fffffffffffffffffffffffffffffffffffffffffffffffffffffffffffffffff8203610a3057610a2f610880565b5b600182019050919050565b6000610a468261074c565b9150610a518361074c565b9250828202610a5f8161074c565b91508282048414831517610a7657610a75610880565b5b5092915050565b7f4e487b7100000000000000000000000000000000000000000000000000000000600052601260045260246000fd5b6000610ab78261074c565b9150610ac28361074c565b925082610ad257610ad1610a7d565b5b828204905092915050565b600069ffffffffffffffffffff82169050919050565b610afc81610add565b8114610b0757600080fd5b50565b600081519050610b1981610af3565b92915050565b6000819050919050565b610b3281610b1f565b8114610b3d57600080fd5b50565b600081519050610b4f81610b29565b92915050565b600081519050610b64816107aa565b92915050565b600080600080600060a08688031215610b8657610b856106bc565b5b6000610b9488828901610b0a565b9550506020610ba588828901610b40565b9450506040610bb688828901610b55565b9350506060610bc788828901610b55565b9250506080610bd888828901610b0a565b9150509295509295909350565b6000610bf082610b1f565b9150610bfb83610b1f565b9250828202610c0981610b1f565b91507f80000000000000000000000000000000000000000000000000000000000000008414600084121615610c4157610c40610880565b5b8282058414831517610c5657610c55610880565b5b509291505056fea2646970667358221220906191464423994b9ba0e88a205fafdb5d227f4f17a8082dc3ba8a50461dad2664736f6c63430008130033",
					"opcodes": "PUSH1 0xA0 PUSH1 0x40 MSTORE CALLVALUE DUP1 ISZERO PUSH2 0x10 JUMPI PUSH1 0x0 DUP1 REVERT JUMPDEST POP CALLER PUSH20 0xFFFFFFFFFFFFFFFFFFFFFFFFFFFFFFFFFFFFFFFF AND PUSH1 0x80 DUP2 PUSH20 0xFFFFFFFFFFFFFFFFFFFFFFFFFFFFFFFFFFFFFFFF AND DUP2 MSTORE POP POP PUSH1 0x80 MLOAD PUSH2 0xC93 PUSH2 0x67 PUSH1 0x0 CODECOPY PUSH1 0x0 DUP2 DUP2 PUSH2 0x28B ADD MSTORE PUSH2 0x4CB ADD MSTORE PUSH2 0xC93 PUSH1 0x0 RETURN INVALID PUSH1 0x80 PUSH1 0x40 MSTORE PUSH1 0x4 CALLDATASIZE LT PUSH2 0x59 JUMPI PUSH1 0x0 CALLDATALOAD PUSH1 0xE0 SHR DUP1 PUSH4 0xCE3F682 EQ PUSH2 0x72 JUMPI DUP1 PUSH4 0x3CCFD60B EQ PUSH2 0xAF JUMPI DUP1 PUSH4 0xB60D4288 EQ PUSH2 0xC6 JUMPI DUP1 PUSH4 0xDBA6335F EQ PUSH2 0xD0 JUMPI DUP1 PUSH4 0xE1AB98BA EQ PUSH2 0xFB JUMPI DUP1 PUSH4 0xEAB95E37 EQ PUSH2 0x126 JUMPI PUSH2 0x68 JUMP JUMPDEST CALLDATASIZE PUSH2 0x68 JUMPI PUSH2 0x66 PUSH2 0x163 JUMP JUMPDEST STOP JUMPDEST PUSH2 0x70 PUSH2 0x163 JUMP JUMPDEST STOP JUMPDEST CALLVALUE DUP1 ISZERO PUSH2 0x7E JUMPI PUSH1 0x0 DUP1 REVERT JUMPDEST POP PUSH2 0x99 PUSH1 0x4 DUP1 CALLDATASIZE SUB DUP2 ADD SWAP1 PUSH2 0x94 SWAP2 SWAP1 PUSH2 0x71F JUMP JUMPDEST PUSH2 0x271 JUMP JUMPDEST PUSH1 0x40 MLOAD PUSH2 0xA6 SWAP2 SWAP1 PUSH2 0x765 JUMP JUMPDEST PUSH1 0x40 MLOAD DUP1 SWAP2 SUB SWAP1 RETURN JUMPDEST CALLVALUE DUP1 ISZERO PUSH2 0xBB JUMPI PUSH1 0x0 DUP1 REVERT JUMPDEST POP PUSH2 0xC4 PUSH2 0x289 JUMP JUMPDEST STOP JUMPDEST PUSH2 0xCE PUSH2 0x163 JUMP JUMPDEST STOP JUMPDEST CALLVALUE DUP1 ISZERO PUSH2 0xDC JUMPI PUSH1 0x0 DUP1 REVERT JUMPDEST POP PUSH2 0xE5 PUSH2 0x4C9 JUMP JUMPDEST PUSH1 0x40 MLOAD PUSH2 0xF2 SWAP2 SWAP1 PUSH2 0x78F JUMP JUMPDEST PUSH1 0x40 MLOAD DUP1 SWAP2 SUB SWAP1 RETURN JUMPDEST CALLVALUE DUP1 ISZERO PUSH2 0x107 JUMPI PUSH1 0x0 DUP1 REVERT JUMPDEST POP PUSH2 0x110 PUSH2 0x4ED JUMP JUMPDEST PUSH1 0x40 MLOAD PUSH2 0x11D SWAP2 SWAP1 PUSH2 0x765 JUMP JUMPDEST PUSH1 0x40 MLOAD DUP1 SWAP2 SUB SWAP1 RETURN JUMPDEST CALLVALUE DUP1 ISZERO PUSH2 0x132 JUMPI PUSH1 0x0 DUP1 REVERT JUMPDEST POP PUSH2 0x14D PUSH1 0x4 DUP1 CALLDATASIZE SUB DUP2 ADD SWAP1 PUSH2 0x148 SWAP2 SWAP1 PUSH2 0x7D6 JUMP JUMPDEST PUSH2 0x4F9 JUMP JUMPDEST PUSH1 0x40 MLOAD PUSH2 0x15A SWAP2 SWAP1 PUSH2 0x78F JUMP JUMPDEST PUSH1 0x40 MLOAD DUP1 SWAP2 SUB SWAP1 RETURN JUMPDEST PUSH8 0xDE0B6B3A7640000 PUSH2 0x175 CALLVALUE PUSH2 0x538 JUMP JUMPDEST LT ISZERO PUSH2 0x1B6 JUMPI PUSH1 0x40 MLOAD PUSH32 0x8C379A000000000000000000000000000000000000000000000000000000000 DUP2 MSTORE PUSH1 0x4 ADD PUSH2 0x1AD SWAP1 PUSH2 0x860 JUMP JUMPDEST PUSH1 0x40 MLOAD DUP1 SWAP2 SUB SWAP1 REVERT JUMPDEST PUSH1 0x0 CALLER SWAP1 DUP1 PUSH1 0x1 DUP2 SLOAD ADD DUP1 DUP3 SSTORE DUP1 SWAP2 POP POP PUSH1 0x1 SWAP1 SUB SWAP1 PUSH1 0x0 MSTORE PUSH1 0x20 PUSH1 0x0 KECCAK256 ADD PUSH1 0x0 SWAP1 SWAP2 SWAP1 SWAP2 SWAP1 SWAP2 PUSH2 0x100 EXP DUP2 SLOAD DUP2 PUSH20 0xFFFFFFFFFFFFFFFFFFFFFFFFFFFFFFFFFFFFFFFF MUL NOT AND SWAP1 DUP4 PUSH20 0xFFFFFFFFFFFFFFFFFFFFFFFFFFFFFFFFFFFFFFFF AND MUL OR SWAP1 SSTORE POP CALLVALUE PUSH1 0x1 PUSH1 0x0 CALLER PUSH20 0xFFFFFFFFFFFFFFFFFFFFFFFFFFFFFFFFFFFFFFFF AND PUSH20 0xFFFFFFFFFFFFFFFFFFFFFFFFFFFFFFFFFFFFFFFF AND DUP2 MSTORE PUSH1 0x20 ADD SWAP1 DUP2 MSTORE PUSH1 0x20 ADD PUSH1 0x0 KECCAK256 PUSH1 0x0 DUP3 DUP3 SLOAD PUSH2 0x268 SWAP2 SWAP1 PUSH2 0x8AF JUMP JUMPDEST SWAP3 POP POP DUP2 SWAP1 SSTORE POP JUMP JUMPDEST PUSH1 0x1 PUSH1 0x20 MSTORE DUP1 PUSH1 0x0 MSTORE PUSH1 0x40 PUSH1 0x0 KECCAK256 PUSH1 0x0 SWAP2 POP SWAP1 POP SLOAD DUP2 JUMP JUMPDEST PUSH32 0x0 PUSH20 0xFFFFFFFFFFFFFFFFFFFFFFFFFFFFFFFFFFFFFFFF AND CALLER PUSH20 0xFFFFFFFFFFFFFFFFFFFFFFFFFFFFFFFFFFFFFFFF AND EQ PUSH2 0x30E JUMPI PUSH1 0x40 MLOAD PUSH32 0x6D2D3EF800000000000000000000000000000000000000000000000000000000 DUP2 MSTORE PUSH1 0x4 ADD PUSH1 0x40 MLOAD DUP1 SWAP2 SUB SWAP1 REVERT JUMPDEST PUSH1 0x0 JUMPDEST PUSH1 0x0 DUP1 SLOAD SWAP1 POP DUP2 LT ISZERO PUSH2 0x4C6 JUMPI PUSH1 0x0 DUP1 DUP3 DUP2 SLOAD DUP2 LT PUSH2 0x333 JUMPI PUSH2 0x332 PUSH2 0x8E3 JUMP JUMPDEST JUMPDEST SWAP1 PUSH1 0x0 MSTORE PUSH1 0x20 PUSH1 0x0 KECCAK256 ADD PUSH1 0x0 SWAP1 SLOAD SWAP1 PUSH2 0x100 EXP SWAP1 DIV PUSH20 0xFFFFFFFFFFFFFFFFFFFFFFFFFFFFFFFFFFFFFFFF AND SWAP1 POP PUSH1 0x0 PUSH1 0x1 PUSH1 0x0 DUP4 PUSH20 0xFFFFFFFFFFFFFFFFFFFFFFFFFFFFFFFFFFFFFFFF AND PUSH20 0xFFFFFFFFFFFFFFFFFFFFFFFFFFFFFFFFFFFFFFFF AND DUP2 MSTORE PUSH1 0x20 ADD SWAP1 DUP2 MSTORE PUSH1 0x20 ADD PUSH1 0x0 KECCAK256 DUP2 SWAP1 SSTORE POP PUSH1 0x0 PUSH8 0xFFFFFFFFFFFFFFFF DUP2 GT ISZERO PUSH2 0x3C0 JUMPI PUSH2 0x3BF PUSH2 0x912 JUMP JUMPDEST JUMPDEST PUSH1 0x40 MLOAD SWAP1 DUP1 DUP3 MSTORE DUP1 PUSH1 0x20 MUL PUSH1 0x20 ADD DUP3 ADD PUSH1 0x40 MSTORE DUP1 ISZERO PUSH2 0x3EE JUMPI DUP2 PUSH1 0x20 ADD PUSH1 0x20 DUP3 MUL DUP1 CALLDATASIZE DUP4 CALLDATACOPY DUP1 DUP3 ADD SWAP2 POP POP SWAP1 POP JUMPDEST POP PUSH1 0x0 SWAP1 DUP1 MLOAD SWAP1 PUSH1 0x20 ADD SWAP1 PUSH2 0x404 SWAP3 SWAP2 SWAP1 PUSH2 0x615 JUMP JUMPDEST POP PUSH1 0x0 CALLER PUSH20 0xFFFFFFFFFFFFFFFFFFFFFFFFFFFFFFFFFFFFFFFF AND SELFBALANCE PUSH1 0x40 MLOAD PUSH2 0x42B SWAP1 PUSH2 0x972 JUMP JUMPDEST PUSH1 0x0 PUSH1 0x40 MLOAD DUP1 DUP4 SUB DUP2 DUP6 DUP8 GAS CALL SWAP3 POP POP POP RETURNDATASIZE DUP1 PUSH1 0x0 DUP2 EQ PUSH2 0x468 JUMPI PUSH1 0x40 MLOAD SWAP2 POP PUSH1 0x1F NOT PUSH1 0x3F RETURNDATASIZE ADD AND DUP3 ADD PUSH1 0x40 MSTORE RETURNDATASIZE DUP3 MSTORE RETURNDATASIZE PUSH1 0x0 PUSH1 0x20 DUP5 ADD RETURNDATACOPY PUSH2 0x46D JUMP JUMPDEST PUSH1 0x60 SWAP2 POP JUMPDEST POP POP SWAP1 POP DUP1 PUSH2 0x4B1 JUMPI PUSH1 0x40 MLOAD PUSH32 0x8C379A000000000000000000000000000000000000000000000000000000000 DUP2 MSTORE PUSH1 0x4 ADD PUSH2 0x4A8 SWAP1 PUSH2 0x9D3 JUMP JUMPDEST PUSH1 0x40 MLOAD DUP1 SWAP2 SUB SWAP1 REVERT JUMPDEST POP POP DUP1 DUP1 PUSH2 0x4BE SWAP1 PUSH2 0x9F3 JUMP JUMPDEST SWAP2 POP POP PUSH2 0x311 JUMP JUMPDEST POP JUMP JUMPDEST PUSH32 0x0 DUP2 JUMP JUMPDEST PUSH8 0xDE0B6B3A7640000 DUP2 JUMP JUMPDEST PUSH1 0x0 DUP2 DUP2 SLOAD DUP2 LT PUSH2 0x509 JUMPI PUSH1 0x0 DUP1 REVERT JUMPDEST SWAP1 PUSH1 0x0 MSTORE PUSH1 0x20 PUSH1 0x0 KECCAK256 ADD PUSH1 0x0 SWAP2 POP SLOAD SWAP1 PUSH2 0x100 EXP SWAP1 DIV PUSH20 0xFFFFFFFFFFFFFFFFFFFFFFFFFFFFFFFFFFFFFFFF AND DUP2 JUMP JUMPDEST PUSH1 0x0 DUP1 PUSH8 0xDE0B6B3A7640000 PUSH2 0x54C PUSH2 0x56C JUMP JUMPDEST DUP5 PUSH2 0x557 SWAP2 SWAP1 PUSH2 0xA3B JUMP JUMPDEST PUSH2 0x561 SWAP2 SWAP1 PUSH2 0xAAC JUMP JUMPDEST SWAP1 POP DUP1 SWAP2 POP POP SWAP2 SWAP1 POP JUMP JUMPDEST PUSH1 0x0 DUP1 PUSH20 0x5F4EC3DF9CBD43714FE2740F5E3616155C5B8419 SWAP1 POP PUSH1 0x0 DUP2 PUSH20 0xFFFFFFFFFFFFFFFFFFFFFFFFFFFFFFFFFFFFFFFF AND PUSH4 0xFEAF968C PUSH1 0x40 MLOAD DUP2 PUSH4 0xFFFFFFFF AND PUSH1 0xE0 SHL DUP2 MSTORE PUSH1 0x4 ADD PUSH1 0xA0 PUSH1 0x40 MLOAD DUP1 DUP4 SUB DUP2 DUP7 GAS STATICCALL ISZERO DUP1 ISZERO PUSH2 0x5D3 JUMPI RETURNDATASIZE PUSH1 0x0 DUP1 RETURNDATACOPY RETURNDATASIZE PUSH1 0x0 REVERT JUMPDEST POP POP POP POP PUSH1 0x40 MLOAD RETURNDATASIZE PUSH1 0x1F NOT PUSH1 0x1F DUP3 ADD AND DUP3 ADD DUP1 PUSH1 0x40 MSTORE POP DUP2 ADD SWAP1 PUSH2 0x5F7 SWAP2 SWAP1 PUSH2 0xB6A JUMP JUMPDEST POP POP POP SWAP2 POP POP PUSH5 0x2540BE400 DUP2 PUSH2 0x60E SWAP2 SWAP1 PUSH2 0xBE5 JUMP JUMPDEST SWAP3 POP POP POP SWAP1 JUMP JUMPDEST DUP3 DUP1 SLOAD DUP3 DUP3 SSTORE SWAP1 PUSH1 0x0 MSTORE PUSH1 0x20 PUSH1 0x0 KECCAK256 SWAP1 DUP2 ADD SWAP3 DUP3 ISZERO PUSH2 0x68E JUMPI SWAP2 PUSH1 0x20 MUL DUP3 ADD JUMPDEST DUP3 DUP2 GT ISZERO PUSH2 0x68D JUMPI DUP3 MLOAD DUP3 PUSH1 0x0 PUSH2 0x100 EXP DUP2 SLOAD DUP2 PUSH20 0xFFFFFFFFFFFFFFFFFFFFFFFFFFFFFFFFFFFFFFFF MUL NOT AND SWAP1 DUP4 PUSH20 0xFFFFFFFFFFFFFFFFFFFFFFFFFFFFFFFFFFFFFFFF AND MUL OR SWAP1 SSTORE POP SWAP2 PUSH1 0x20 ADD SWAP2 SWAP1 PUSH1 0x1 ADD SWAP1 PUSH2 0x635 JUMP JUMPDEST JUMPDEST POP SWAP1 POP PUSH2 0x69B SWAP2 SWAP1 PUSH2 0x69F JUMP JUMPDEST POP SWAP1 JUMP JUMPDEST JUMPDEST DUP1 DUP3 GT ISZERO PUSH2 0x6B8 JUMPI PUSH1 0x0 DUP2 PUSH1 0x0 SWAP1 SSTORE POP PUSH1 0x1 ADD PUSH2 0x6A0 JUMP JUMPDEST POP SWAP1 JUMP JUMPDEST PUSH1 0x0 DUP1 REVERT JUMPDEST PUSH1 0x0 PUSH20 0xFFFFFFFFFFFFFFFFFFFFFFFFFFFFFFFFFFFFFFFF DUP3 AND SWAP1 POP SWAP2 SWAP1 POP JUMP JUMPDEST PUSH1 0x0 PUSH2 0x6EC DUP3 PUSH2 0x6C1 JUMP JUMPDEST SWAP1 POP SWAP2 SWAP1 POP JUMP JUMPDEST PUSH2 0x6FC DUP2 PUSH2 0x6E1 JUMP JUMPDEST DUP2 EQ PUSH2 0x707 JUMPI PUSH1 0x0 DUP1 REVERT JUMPDEST POP JUMP JUMPDEST PUSH1 0x0 DUP2 CALLDATALOAD SWAP1 POP PUSH2 0x719 DUP2 PUSH2 0x6F3 JUMP JUMPDEST SWAP3 SWAP2 POP POP JUMP JUMPDEST PUSH1 0x0 PUSH1 0x20 DUP3 DUP5 SUB SLT ISZERO PUSH2 0x735 JUMPI PUSH2 0x734 PUSH2 0x6BC JUMP JUMPDEST JUMPDEST PUSH1 0x0 PUSH2 0x743 DUP5 DUP3 DUP6 ADD PUSH2 0x70A JUMP JUMPDEST SWAP2 POP POP SWAP3 SWAP2 POP POP JUMP JUMPDEST PUSH1 0x0 DUP2 SWAP1 POP SWAP2 SWAP1 POP JUMP JUMPDEST PUSH2 0x75F DUP2 PUSH2 0x74C JUMP JUMPDEST DUP3 MSTORE POP POP JUMP JUMPDEST PUSH1 0x0 PUSH1 0x20 DUP3 ADD SWAP1 POP PUSH2 0x77A PUSH1 0x0 DUP4 ADD DUP5 PUSH2 0x756 JUMP JUMPDEST SWAP3 SWAP2 POP POP JUMP JUMPDEST PUSH2 0x789 DUP2 PUSH2 0x6E1 JUMP JUMPDEST DUP3 MSTORE POP POP JUMP JUMPDEST PUSH1 0x0 PUSH1 0x20 DUP3 ADD SWAP1 POP PUSH2 0x7A4 PUSH1 0x0 DUP4 ADD DUP5 PUSH2 0x780 JUMP JUMPDEST SWAP3 SWAP2 POP POP JUMP JUMPDEST PUSH2 0x7B3 DUP2 PUSH2 0x74C JUMP JUMPDEST DUP2 EQ PUSH2 0x7BE JUMPI PUSH1 0x0 DUP1 REVERT JUMPDEST POP JUMP JUMPDEST PUSH1 0x0 DUP2 CALLDATALOAD SWAP1 POP PUSH2 0x7D0 DUP2 PUSH2 0x7AA JUMP JUMPDEST SWAP3 SWAP2 POP POP JUMP JUMPDEST PUSH1 0x0 PUSH1 0x20 DUP3 DUP5 SUB SLT ISZERO PUSH2 0x7EC JUMPI PUSH2 0x7EB PUSH2 0x6BC JUMP JUMPDEST JUMPDEST PUSH1 0x0 PUSH2 0x7FA DUP5 DUP3 DUP6 ADD PUSH2 0x7C1 JUMP JUMPDEST SWAP2 POP POP SWAP3 SWAP2 POP POP JUMP JUMPDEST PUSH1 0x0 DUP3 DUP3 MSTORE PUSH1 0x20 DUP3 ADD SWAP1 POP SWAP3 SWAP2 POP POP JUMP JUMPDEST PUSH32 0x62726F6B69650000000000000000000000000000000000000000000000000000 PUSH1 0x0 DUP3 ADD MSTORE POP JUMP JUMPDEST PUSH1 0x0 PUSH2 0x84A PUSH1 0x6 DUP4 PUSH2 0x803 JUMP JUMPDEST SWAP2 POP PUSH2 0x855 DUP3 PUSH2 0x814 JUMP JUMPDEST PUSH1 0x20 DUP3 ADD SWAP1 POP SWAP2 SWAP1 POP JUMP JUMPDEST PUSH1 0x0 PUSH1 0x20 DUP3 ADD SWAP1 POP DUP2 DUP2 SUB PUSH1 0x0 DUP4 ADD MSTORE PUSH2 0x879 DUP2 PUSH2 0x83D JUMP JUMPDEST SWAP1 POP SWAP2 SWAP1 POP JUMP JUMPDEST PUSH32 0x4E487B7100000000000000000000000000000000000000000000000000000000 PUSH1 0x0 MSTORE PUSH1 0x11 PUSH1 0x4 MSTORE PUSH1 0x24 PUSH1 0x0 REVERT JUMPDEST PUSH1 0x0 PUSH2 0x8BA DUP3 PUSH2 0x74C JUMP JUMPDEST SWAP2 POP PUSH2 0x8C5 DUP4 PUSH2 0x74C JUMP JUMPDEST SWAP3 POP DUP3 DUP3 ADD SWAP1 POP DUP1 DUP3 GT ISZERO PUSH2 0x8DD JUMPI PUSH2 0x8DC PUSH2 0x880 JUMP JUMPDEST JUMPDEST SWAP3 SWAP2 POP POP JUMP JUMPDEST PUSH32 0x4E487B7100000000000000000000000000000000000000000000000000000000 PUSH1 0x0 MSTORE PUSH1 0x32 PUSH1 0x4 MSTORE PUSH1 0x24 PUSH1 0x0 REVERT JUMPDEST PUSH32 0x4E487B7100000000000000000000000000000000000000000000000000000000 PUSH1 0x0 MSTORE PUSH1 0x41 PUSH1 0x4 MSTORE PUSH1 0x24 PUSH1 0x0 REVERT JUMPDEST PUSH1 0x0 DUP2 SWAP1 POP SWAP3 SWAP2 POP POP JUMP JUMPDEST POP JUMP JUMPDEST PUSH1 0x0 PUSH2 0x95C PUSH1 0x0 DUP4 PUSH2 0x941 JUMP JUMPDEST SWAP2 POP PUSH2 0x967 DUP3 PUSH2 0x94C JUMP JUMPDEST PUSH1 0x0 DUP3 ADD SWAP1 POP SWAP2 SWAP1 POP JUMP JUMPDEST PUSH1 0x0 PUSH2 0x97D DUP3 PUSH2 0x94F JUMP JUMPDEST SWAP2 POP DUP2 SWAP1 POP SWAP2 SWAP1 POP JUMP JUMPDEST PUSH32 0x6767000000000000000000000000000000000000000000000000000000000000 PUSH1 0x0 DUP3 ADD MSTORE POP JUMP JUMPDEST PUSH1 0x0 PUSH2 0x9BD PUSH1 0x2 DUP4 PUSH2 0x803 JUMP JUMPDEST SWAP2 POP PUSH2 0x9C8 DUP3 PUSH2 0x987 JUMP JUMPDEST PUSH1 0x20 DUP3 ADD SWAP1 POP SWAP2 SWAP1 POP JUMP JUMPDEST PUSH1 0x0 PUSH1 0x20 DUP3 ADD SWAP1 POP DUP2 DUP2 SUB PUSH1 0x0 DUP4 ADD MSTORE PUSH2 0x9EC DUP2 PUSH2 0x9B0 JUMP JUMPDEST SWAP1 POP SWAP2 SWAP1 POP JUMP JUMPDEST PUSH1 0x0 PUSH2 0x9FE DUP3 PUSH2 0x74C JUMP JUMPDEST SWAP2 POP PUSH32 0xFFFFFFFFFFFFFFFFFFFFFFFFFFFFFFFFFFFFFFFFFFFFFFFFFFFFFFFFFFFFFFFF DUP3 SUB PUSH2 0xA30 JUMPI PUSH2 0xA2F PUSH2 0x880 JUMP JUMPDEST JUMPDEST PUSH1 0x1 DUP3 ADD SWAP1 POP SWAP2 SWAP1 POP JUMP JUMPDEST PUSH1 0x0 PUSH2 0xA46 DUP3 PUSH2 0x74C JUMP JUMPDEST SWAP2 POP PUSH2 0xA51 DUP4 PUSH2 0x74C JUMP JUMPDEST SWAP3 POP DUP3 DUP3 MUL PUSH2 0xA5F DUP2 PUSH2 0x74C JUMP JUMPDEST SWAP2 POP DUP3 DUP3 DIV DUP5 EQ DUP4 ISZERO OR PUSH2 0xA76 JUMPI PUSH2 0xA75 PUSH2 0x880 JUMP JUMPDEST JUMPDEST POP SWAP3 SWAP2 POP POP JUMP JUMPDEST PUSH32 0x4E487B7100000000000000000000000000000000000000000000000000000000 PUSH1 0x0 MSTORE PUSH1 0x12 PUSH1 0x4 MSTORE PUSH1 0x24 PUSH1 0x0 REVERT JUMPDEST PUSH1 0x0 PUSH2 0xAB7 DUP3 PUSH2 0x74C JUMP JUMPDEST SWAP2 POP PUSH2 0xAC2 DUP4 PUSH2 0x74C JUMP JUMPDEST SWAP3 POP DUP3 PUSH2 0xAD2 JUMPI PUSH2 0xAD1 PUSH2 0xA7D JUMP JUMPDEST JUMPDEST DUP3 DUP3 DIV SWAP1 POP SWAP3 SWAP2 POP POP JUMP JUMPDEST PUSH1 0x0 PUSH10 0xFFFFFFFFFFFFFFFFFFFF DUP3 AND SWAP1 POP SWAP2 SWAP1 POP JUMP JUMPDEST PUSH2 0xAFC DUP2 PUSH2 0xADD JUMP JUMPDEST DUP2 EQ PUSH2 0xB07 JUMPI PUSH1 0x0 DUP1 REVERT JUMPDEST POP JUMP JUMPDEST PUSH1 0x0 DUP2 MLOAD SWAP1 POP PUSH2 0xB19 DUP2 PUSH2 0xAF3 JUMP JUMPDEST SWAP3 SWAP2 POP POP JUMP JUMPDEST PUSH1 0x0 DUP2 SWAP1 POP SWAP2 SWAP1 POP JUMP JUMPDEST PUSH2 0xB32 DUP2 PUSH2 0xB1F JUMP JUMPDEST DUP2 EQ PUSH2 0xB3D JUMPI PUSH1 0x0 DUP1 REVERT JUMPDEST POP JUMP JUMPDEST PUSH1 0x0 DUP2 MLOAD SWAP1 POP PUSH2 0xB4F DUP2 PUSH2 0xB29 JUMP JUMPDEST SWAP3 SWAP2 POP POP JUMP JUMPDEST PUSH1 0x0 DUP2 MLOAD SWAP1 POP PUSH2 0xB64 DUP2 PUSH2 0x7AA JUMP JUMPDEST SWAP3 SWAP2 POP POP JUMP JUMPDEST PUSH1 0x0 DUP1 PUSH1 0x0 DUP1 PUSH1 0x0 PUSH1 0xA0 DUP7 DUP9 SUB SLT ISZERO PUSH2 0xB86 JUMPI PUSH2 0xB85 PUSH2 0x6BC JUMP JUMPDEST JUMPDEST PUSH1 0x0 PUSH2 0xB94 DUP9 DUP3 DUP10 ADD PUSH2 0xB0A JUMP JUMPDEST SWAP6 POP POP PUSH1 0x20 PUSH2 0xBA5 DUP9 DUP3 DUP10 ADD PUSH2 0xB40 JUMP JUMPDEST SWAP5 POP POP PUSH1 0x40 PUSH2 0xBB6 DUP9 DUP3 DUP10 ADD PUSH2 0xB55 JUMP JUMPDEST SWAP4 POP POP PUSH1 0x60 PUSH2 0xBC7 DUP9 DUP3 DUP10 ADD PUSH2 0xB55 JUMP JUMPDEST SWAP3 POP POP PUSH1 0x80 PUSH2 0xBD8 DUP9 DUP3 DUP10 ADD PUSH2 0xB0A JUMP JUMPDEST SWAP2 POP POP SWAP3 SWAP6 POP SWAP3 SWAP6 SWAP1 SWAP4 POP JUMP JUMPDEST PUSH1 0x0 PUSH2 0xBF0 DUP3 PUSH2 0xB1F JUMP JUMPDEST SWAP2 POP PUSH2 0xBFB DUP4 PUSH2 0xB1F JUMP JUMPDEST SWAP3 POP DUP3 DUP3 MUL PUSH2 0xC09 DUP2 PUSH2 0xB1F JUMP JUMPDEST SWAP2 POP PUSH32 0x8000000000000000000000000000000000000000000000000000000000000000 DUP5 EQ PUSH1 0x0 DUP5 SLT AND ISZERO PUSH2 0xC41 JUMPI PUSH2 0xC40 PUSH2 0x880 JUMP JUMPDEST JUMPDEST DUP3 DUP3 SDIV DUP5 EQ DUP4 ISZERO OR PUSH2 0xC56 JUMPI PUSH2 0xC55 PUSH2 0x880 JUMP JUMPDEST JUMPDEST POP SWAP3 SWAP2 POP POP JUMP INVALID LOG2 PUSH5 0x6970667358 0x22 SLT KECCAK256 SWAP1 PUSH2 0x9146 PREVRANDAO 0x23 SWAP10 0x4B SWAP12 LOG0 0xE8 DUP11 KECCAK256 0x5F 0xAF 0xDB 0x5D 0x22 PUSH32 0x4F17A8082DC3BA8A50461DAD2664736F6C634300081300330000000000000000 "
				},
				"gasEstimates": {
					"creation": {
						"codeDepositCost": "643800",
						"executionCost": "infinite",
						"totalCost": "infinite"
					},
					"external": {
						"": "infinite",
						"PRICE_USD()": "395",
						"fudders(uint256)": "5044",
						"fund()": "infinite",
						"i_owner()": "infinite",
						"loosers(address)": "2792",
						"withdraw()": "infinite"
					}
				},
				"methodIdentifiers": {
					"PRICE_USD()": "e1ab98ba",
					"fudders(uint256)": "eab95e37",
					"fund()": "b60d4288",
					"i_owner()": "dba6335f",
					"loosers(address)": "0ce3f682",
					"withdraw()": "3ccfd60b"
				}
			},
			"storageLayout": {
				"storage": [
					{
						"astId": 86,
						"contract": "FundMe.sol:FundMe",
						"label": "fudders",
						"offset": 0,
						"slot": "0",
						"type": "t_array(t_address)dyn_storage"
					},
					{
						"astId": 90,
						"contract": "FundMe.sol:FundMe",
						"label": "loosers",
						"offset": 0,
						"slot": "1",
						"type": "t_mapping(t_address,t_uint256)"
					}
				],
				"types": {
					"t_address": {
						"encoding": "inplace",
						"label": "address",
						"numberOfBytes": "20"
					},
					"t_array(t_address)dyn_storage": {
						"base": "t_address",
						"encoding": "dynamic_array",
						"label": "address[]",
						"numberOfBytes": "32"
					},
					"t_mapping(t_address,t_uint256)": {
						"encoding": "mapping",
						"key": "t_address",
						"label": "mapping(address => uint256)",
						"numberOfBytes": "32",
						"value": "t_uint256"
					},
					"t_uint256": {
						"encoding": "inplace",
						"label": "uint256",
						"numberOfBytes": "32"
					}
				}
			},
			"userdoc": {
				"kind": "user",
				"methods": {},
				"version": 1
			}
		}
	}
}