{
	"storage.sol": {
		"SimpleStorage": {
			"abi": [
				{
					"inputs": [],
					"name": "Number",
					"outputs": [
						{
							"internalType": "uint256",
							"name": "",
							"type": "uint256"
						}
					],
					"stateMutability": "view",
					"type": "function"
				},
				{
					"inputs": [],
					"name": "Number1",
					"outputs": [
						{
							"internalType": "uint256",
							"name": "",
							"type": "uint256"
						}
					],
					"stateMutability": "view",
					"type": "function"
				},
				{
					"inputs": [],
					"name": "jamie",
					"outputs": [
						{
							"internalType": "uint256",
							"name": "favNumber",
							"type": "uint256"
						},
						{
							"internalType": "string",
							"name": "name",
							"type": "string"
						}
					],
					"stateMutability": "view",
					"type": "function"
				},
				{
					"inputs": [],
					"name": "retrieve",
					"outputs": [
						{
							"internalType": "uint256",
							"name": "",
							"type": "uint256"
						}
					],
					"stateMutability": "view",
					"type": "function"
				},
				{
					"inputs": [
						{
							"internalType": "uint256",
							"name": "_favNumber",
							"type": "uint256"
						}
					],
					"name": "store",
					"outputs": [],
					"stateMutability": "nonpayable",
					"type": "function"
				}
			],
			"devdoc": {
				"kind": "dev",
				"methods": {},
				"version": 1
			},
			"evm": {
				"assembly": "    /* \"storage.sol\":59:437  contract SimpleStorage {... */\n  mstore(0x40, 0x80)\n    /* \"storage.sol\":113:114  0 */\n  0x00\n    /* \"storage.sol\":89:114  uint256 public Number = 0 */\n  dup1\n  sstore\n    /* \"storage.sol\":145:146  0 */\n  0x00\n    /* \"storage.sol\":120:146  uint256 public Number1 = 0 */\n  0x01\n  sstore\n    /* \"storage.sol\":231:269  Person({favNumber: 13, name: \"jamie\"}) */\n  mload(0x40)\n  dup1\n  0x40\n  add\n  0x40\n  mstore\n  dup1\n    /* \"storage.sol\":250:252  13 */\n  0x0d\n    /* \"storage.sol\":231:269  Person({favNumber: 13, name: \"jamie\"}) */\n  dup2\n  mstore\n  0x20\n  add\n  mload(0x40)\n  dup1\n  0x40\n  add\n  0x40\n  mstore\n  dup1\n  0x05\n  dup2\n  mstore\n  0x20\n  add\n  0x6a616d6965000000000000000000000000000000000000000000000000000000\n  dup2\n  mstore\n  pop\n  dup2\n  mstore\n  pop\n    /* \"storage.sol\":209:269  Person public jamie = Person({favNumber: 13, name: \"jamie\"}) */\n  0x02\n  0x00\n  dup3\n  add\n  mload\n  dup2\n  0x00\n  add\n  sstore\n  0x20\n  dup3\n  add\n  mload\n  dup2\n  0x01\n  add\n  swap1\n  dup2\n  tag_1\n  swap2\n  swap1\n  tag_2\n  jump\t// in\ntag_1:\n  pop\n  pop\n  pop\n    /* \"storage.sol\":59:437  contract SimpleStorage {... */\n  callvalue\n  dup1\n  iszero\n  tag_3\n  jumpi\n  0x00\n  dup1\n  revert\ntag_3:\n  pop\n  jump(tag_4)\n    /* \"#utility.yul\":7:106   */\ntag_5:\n    /* \"#utility.yul\":59:65   */\n  0x00\n    /* \"#utility.yul\":93:98   */\n  dup2\n    /* \"#utility.yul\":87:99   */\n  mload\n    /* \"#utility.yul\":77:99   */\n  swap1\n  pop\n    /* \"#utility.yul\":7:106   */\n  swap2\n  swap1\n  pop\n  jump\t// out\n    /* \"#utility.yul\":112:292   */\ntag_6:\n    /* \"#utility.yul\":160:237   */\n  0x4e487b7100000000000000000000000000000000000000000000000000000000\n    /* \"#utility.yul\":157:158   */\n  0x00\n    /* \"#utility.yul\":150:238   */\n  mstore\n    /* \"#utility.yul\":257:261   */\n  0x41\n    /* \"#utility.yul\":254:255   */\n  0x04\n    /* \"#utility.yul\":247:262   */\n  mstore\n    /* \"#utility.yul\":281:285   */\n  0x24\n    /* \"#utility.yul\":278:279   */\n  0x00\n    /* \"#utility.yul\":271:286   */\n  revert\n    /* \"#utility.yul\":298:478   */\ntag_7:\n    /* \"#utility.yul\":346:423   */\n  0x4e487b7100000000000000000000000000000000000000000000000000000000\n    /* \"#utility.yul\":343:344   */\n  0x00\n    /* \"#utility.yul\":336:424   */\n  mstore\n    /* \"#utility.yul\":443:447   */\n  0x22\n    /* \"#utility.yul\":440:441   */\n  0x04\n    /* \"#utility.yul\":433:448   */\n  mstore\n    /* \"#utility.yul\":467:471   */\n  0x24\n    /* \"#utility.yul\":464:465   */\n  0x00\n    /* \"#utility.yul\":457:472   */\n  revert\n    /* \"#utility.yul\":484:804   */\ntag_8:\n    /* \"#utility.yul\":528:534   */\n  0x00\n    /* \"#utility.yul\":565:566   */\n  0x02\n    /* \"#utility.yul\":559:563   */\n  dup3\n    /* \"#utility.yul\":555:567   */\n  div\n    /* \"#utility.yul\":545:567   */\n  swap1\n  pop\n    /* \"#utility.yul\":612:613   */\n  0x01\n    /* \"#utility.yul\":606:610   */\n  dup3\n    /* \"#utility.yul\":602:614   */\n  and\n    /* \"#utility.yul\":633:651   */\n  dup1\n    /* \"#utility.yul\":623:704   */\n  tag_30\n  jumpi\n    /* \"#utility.yul\":689:693   */\n  0x7f\n    /* \"#utility.yul\":681:687   */\n  dup3\n    /* \"#utility.yul\":677:694   */\n  and\n    /* \"#utility.yul\":667:694   */\n  swap2\n  pop\n    /* \"#utility.yul\":623:704   */\ntag_30:\n    /* \"#utility.yul\":751:753   */\n  0x20\n    /* \"#utility.yul\":743:749   */\n  dup3\n    /* \"#utility.yul\":740:754   */\n  lt\n    /* \"#utility.yul\":720:738   */\n  dup2\n    /* \"#utility.yul\":717:755   */\n  sub\n    /* \"#utility.yul\":714:798   */\n  tag_31\n  jumpi\n    /* \"#utility.yul\":770:788   */\n  tag_32\n  tag_7\n  jump\t// in\ntag_32:\n    /* \"#utility.yul\":714:798   */\ntag_31:\n    /* \"#utility.yul\":535:804   */\n  pop\n    /* \"#utility.yul\":484:804   */\n  swap2\n  swap1\n  pop\n  jump\t// out\n    /* \"#utility.yul\":810:951   */\ntag_9:\n    /* \"#utility.yul\":859:863   */\n  0x00\n    /* \"#utility.yul\":882:885   */\n  dup2\n    /* \"#utility.yul\":874:885   */\n  swap1\n  pop\n    /* \"#utility.yul\":905:908   */\n  dup2\n    /* \"#utility.yul\":902:903   */\n  0x00\n    /* \"#utility.yul\":895:909   */\n  mstore\n    /* \"#utility.yul\":939:943   */\n  0x20\n    /* \"#utility.yul\":936:937   */\n  0x00\n    /* \"#utility.yul\":926:944   */\n  keccak256\n    /* \"#utility.yul\":918:944   */\n  swap1\n  pop\n    /* \"#utility.yul\":810:951   */\n  swap2\n  swap1\n  pop\n  jump\t// out\n    /* \"#utility.yul\":957:1050   */\ntag_10:\n    /* \"#utility.yul\":994:1000   */\n  0x00\n    /* \"#utility.yul\":1041:1043   */\n  0x20\n    /* \"#utility.yul\":1036:1038   */\n  0x1f\n    /* \"#utility.yul\":1029:1034   */\n  dup4\n    /* \"#utility.yul\":1025:1039   */\n  add\n    /* \"#utility.yul\":1021:1044   */\n  div\n    /* \"#utility.yul\":1011:1044   */\n  swap1\n  pop\n    /* \"#utility.yul\":957:1050   */\n  swap2\n  swap1\n  pop\n  jump\t// out\n    /* \"#utility.yul\":1056:1163   */\ntag_11:\n    /* \"#utility.yul\":1100:1108   */\n  0x00\n    /* \"#utility.yul\":1150:1155   */\n  dup3\n    /* \"#utility.yul\":1144:1148   */\n  dup3\n    /* \"#utility.yul\":1140:1156   */\n  shl\n    /* \"#utility.yul\":1119:1156   */\n  swap1\n  pop\n    /* \"#utility.yul\":1056:1163   */\n  swap3\n  swap2\n  pop\n  pop\n  jump\t// out\n    /* \"#utility.yul\":1169:1562   */\ntag_12:\n    /* \"#utility.yul\":1238:1244   */\n  0x00\n    /* \"#utility.yul\":1288:1289   */\n  0x08\n    /* \"#utility.yul\":1276:1286   */\n  dup4\n    /* \"#utility.yul\":1272:1290   */\n  mul\n    /* \"#utility.yul\":1311:1408   */\n  tag_37\n    /* \"#utility.yul\":1341:1407   */\n  0xffffffffffffffffffffffffffffffffffffffffffffffffffffffffffffffff\n    /* \"#utility.yul\":1330:1339   */\n  dup3\n    /* \"#utility.yul\":1311:1408   */\n  tag_11\n  jump\t// in\ntag_37:\n    /* \"#utility.yul\":1429:1468   */\n  tag_38\n    /* \"#utility.yul\":1459:1467   */\n  dup7\n    /* \"#utility.yul\":1448:1457   */\n  dup4\n    /* \"#utility.yul\":1429:1468   */\n  tag_11\n  jump\t// in\ntag_38:\n    /* \"#utility.yul\":1417:1468   */\n  swap6\n  pop\n    /* \"#utility.yul\":1501:1505   */\n  dup1\n    /* \"#utility.yul\":1497:1506   */\n  not\n    /* \"#utility.yul\":1490:1495   */\n  dup5\n    /* \"#utility.yul\":1486:1507   */\n  and\n    /* \"#utility.yul\":1477:1507   */\n  swap4\n  pop\n    /* \"#utility.yul\":1550:1554   */\n  dup1\n    /* \"#utility.yul\":1540:1548   */\n  dup7\n    /* \"#utility.yul\":1536:1555   */\n  and\n    /* \"#utility.yul\":1529:1534   */\n  dup5\n    /* \"#utility.yul\":1526:1556   */\n  or\n    /* \"#utility.yul\":1516:1556   */\n  swap3\n  pop\n    /* \"#utility.yul\":1245:1562   */\n  pop\n  pop\n    /* \"#utility.yul\":1169:1562   */\n  swap4\n  swap3\n  pop\n  pop\n  pop\n  jump\t// out\n    /* \"#utility.yul\":1568:1645   */\ntag_13:\n    /* \"#utility.yul\":1605:1612   */\n  0x00\n    /* \"#utility.yul\":1634:1639   */\n  dup2\n    /* \"#utility.yul\":1623:1639   */\n  swap1\n  pop\n    /* \"#utility.yul\":1568:1645   */\n  swap2\n  swap1\n  pop\n  jump\t// out\n    /* \"#utility.yul\":1651:1711   */\ntag_14:\n    /* \"#utility.yul\":1679:1682   */\n  0x00\n    /* \"#utility.yul\":1700:1705   */\n  dup2\n    /* \"#utility.yul\":1693:1705   */\n  swap1\n  pop\n    /* \"#utility.yul\":1651:1711   */\n  swap2\n  swap1\n  pop\n  jump\t// out\n    /* \"#utility.yul\":1717:1859   */\ntag_15:\n    /* \"#utility.yul\":1767:1776   */\n  0x00\n    /* \"#utility.yul\":1800:1853   */\n  tag_42\n    /* \"#utility.yul\":1818:1852   */\n  tag_43\n    /* \"#utility.yul\":1827:1851   */\n  tag_44\n    /* \"#utility.yul\":1845:1850   */\n  dup5\n    /* \"#utility.yul\":1827:1851   */\n  tag_13\n  jump\t// in\ntag_44:\n    /* \"#utility.yul\":1818:1852   */\n  tag_14\n  jump\t// in\ntag_43:\n    /* \"#utility.yul\":1800:1853   */\n  tag_13\n  jump\t// in\ntag_42:\n    /* \"#utility.yul\":1787:1853   */\n  swap1\n  pop\n    /* \"#utility.yul\":1717:1859   */\n  swap2\n  swap1\n  pop\n  jump\t// out\n    /* \"#utility.yul\":1865:1940   */\ntag_16:\n    /* \"#utility.yul\":1908:1911   */\n  0x00\n    /* \"#utility.yul\":1929:1934   */\n  dup2\n    /* \"#utility.yul\":1922:1934   */\n  swap1\n  pop\n    /* \"#utility.yul\":1865:1940   */\n  swap2\n  swap1\n  pop\n  jump\t// out\n    /* \"#utility.yul\":1946:2215   */\ntag_17:\n    /* \"#utility.yul\":2056:2095   */\n  tag_47\n    /* \"#utility.yul\":2087:2094   */\n  dup4\n    /* \"#utility.yul\":2056:2095   */\n  tag_15\n  jump\t// in\ntag_47:\n    /* \"#utility.yul\":2117:2208   */\n  tag_48\n    /* \"#utility.yul\":2166:2207   */\n  tag_49\n    /* \"#utility.yul\":2190:2206   */\n  dup3\n    /* \"#utility.yul\":2166:2207   */\n  tag_16\n  jump\t// in\ntag_49:\n    /* \"#utility.yul\":2158:2164   */\n  dup5\n    /* \"#utility.yul\":2151:2155   */\n  dup5\n    /* \"#utility.yul\":2145:2156   */\n  sload\n    /* \"#utility.yul\":2117:2208   */\n  tag_12\n  jump\t// in\ntag_48:\n    /* \"#utility.yul\":2111:2115   */\n  dup3\n    /* \"#utility.yul\":2104:2209   */\n  sstore\n    /* \"#utility.yul\":2022:2215   */\n  pop\n    /* \"#utility.yul\":1946:2215   */\n  pop\n  pop\n  pop\n  jump\t// out\n    /* \"#utility.yul\":2221:2294   */\ntag_18:\n    /* \"#utility.yul\":2266:2269   */\n  0x00\n    /* \"#utility.yul\":2221:2294   */\n  swap1\n  jump\t// out\n    /* \"#utility.yul\":2300:2489   */\ntag_19:\n    /* \"#utility.yul\":2377:2409   */\n  tag_52\n  tag_18\n  jump\t// in\ntag_52:\n    /* \"#utility.yul\":2418:2483   */\n  tag_53\n    /* \"#utility.yul\":2476:2482   */\n  dup2\n    /* \"#utility.yul\":2468:2474   */\n  dup5\n    /* \"#utility.yul\":2462:2466   */\n  dup5\n    /* \"#utility.yul\":2418:2483   */\n  tag_17\n  jump\t// in\ntag_53:\n    /* \"#utility.yul\":2353:2489   */\n  pop\n    /* \"#utility.yul\":2300:2489   */\n  pop\n  pop\n  jump\t// out\n    /* \"#utility.yul\":2495:2681   */\ntag_20:\n    /* \"#utility.yul\":2555:2675   */\ntag_55:\n    /* \"#utility.yul\":2572:2575   */\n  dup2\n    /* \"#utility.yul\":2565:2570   */\n  dup2\n    /* \"#utility.yul\":2562:2576   */\n  lt\n    /* \"#utility.yul\":2555:2675   */\n  iszero\n  tag_57\n  jumpi\n    /* \"#utility.yul\":2626:2665   */\n  tag_58\n    /* \"#utility.yul\":2663:2664   */\n  0x00\n    /* \"#utility.yul\":2656:2661   */\n  dup3\n    /* \"#utility.yul\":2626:2665   */\n  tag_19\n  jump\t// in\ntag_58:\n    /* \"#utility.yul\":2599:2600   */\n  0x01\n    /* \"#utility.yul\":2592:2597   */\n  dup2\n    /* \"#utility.yul\":2588:2601   */\n  add\n    /* \"#utility.yul\":2579:2601   */\n  swap1\n  pop\n    /* \"#utility.yul\":2555:2675   */\n  jump(tag_55)\ntag_57:\n    /* \"#utility.yul\":2495:2681   */\n  pop\n  pop\n  jump\t// out\n    /* \"#utility.yul\":2687:3230   */\ntag_21:\n    /* \"#utility.yul\":2788:2790   */\n  0x1f\n    /* \"#utility.yul\":2783:2786   */\n  dup3\n    /* \"#utility.yul\":2780:2791   */\n  gt\n    /* \"#utility.yul\":2777:3223   */\n  iszero\n  tag_60\n  jumpi\n    /* \"#utility.yul\":2822:2860   */\n  tag_61\n    /* \"#utility.yul\":2854:2859   */\n  dup2\n    /* \"#utility.yul\":2822:2860   */\n  tag_9\n  jump\t// in\ntag_61:\n    /* \"#utility.yul\":2906:2935   */\n  tag_62\n    /* \"#utility.yul\":2924:2934   */\n  dup5\n    /* \"#utility.yul\":2906:2935   */\n  tag_10\n  jump\t// in\ntag_62:\n    /* \"#utility.yul\":2896:2904   */\n  dup2\n    /* \"#utility.yul\":2892:2936   */\n  add\n    /* \"#utility.yul\":3089:3091   */\n  0x20\n    /* \"#utility.yul\":3077:3087   */\n  dup6\n    /* \"#utility.yul\":3074:3092   */\n  lt\n    /* \"#utility.yul\":3071:3120   */\n  iszero\n  tag_63\n  jumpi\n    /* \"#utility.yul\":3110:3118   */\n  dup2\n    /* \"#utility.yul\":3095:3118   */\n  swap1\n  pop\n    /* \"#utility.yul\":3071:3120   */\ntag_63:\n    /* \"#utility.yul\":3133:3213   */\n  tag_64\n    /* \"#utility.yul\":3189:3211   */\n  tag_65\n    /* \"#utility.yul\":3207:3210   */\n  dup6\n    /* \"#utility.yul\":3189:3211   */\n  tag_10\n  jump\t// in\ntag_65:\n    /* \"#utility.yul\":3179:3187   */\n  dup4\n    /* \"#utility.yul\":3175:3212   */\n  add\n    /* \"#utility.yul\":3162:3173   */\n  dup3\n    /* \"#utility.yul\":3133:3213   */\n  tag_20\n  jump\t// in\ntag_64:\n    /* \"#utility.yul\":2792:3223   */\n  pop\n  pop\n    /* \"#utility.yul\":2777:3223   */\ntag_60:\n    /* \"#utility.yul\":2687:3230   */\n  pop\n  pop\n  pop\n  jump\t// out\n    /* \"#utility.yul\":3236:3353   */\ntag_22:\n    /* \"#utility.yul\":3290:3298   */\n  0x00\n    /* \"#utility.yul\":3340:3345   */\n  dup3\n    /* \"#utility.yul\":3334:3338   */\n  dup3\n    /* \"#utility.yul\":3330:3346   */\n  shr\n    /* \"#utility.yul\":3309:3346   */\n  swap1\n  pop\n    /* \"#utility.yul\":3236:3353   */\n  swap3\n  swap2\n  pop\n  pop\n  jump\t// out\n    /* \"#utility.yul\":3359:3528   */\ntag_23:\n    /* \"#utility.yul\":3403:3409   */\n  0x00\n    /* \"#utility.yul\":3436:3487   */\n  tag_68\n    /* \"#utility.yul\":3484:3485   */\n  0x00\n    /* \"#utility.yul\":3480:3486   */\n  not\n    /* \"#utility.yul\":3472:3477   */\n  dup5\n    /* \"#utility.yul\":3469:3470   */\n  0x08\n    /* \"#utility.yul\":3465:3478   */\n  mul\n    /* \"#utility.yul\":3436:3487   */\n  tag_22\n  jump\t// in\ntag_68:\n    /* \"#utility.yul\":3432:3488   */\n  not\n    /* \"#utility.yul\":3517:3521   */\n  dup1\n    /* \"#utility.yul\":3511:3515   */\n  dup4\n    /* \"#utility.yul\":3507:3522   */\n  and\n    /* \"#utility.yul\":3497:3522   */\n  swap2\n  pop\n    /* \"#utility.yul\":3410:3528   */\n  pop\n    /* \"#utility.yul\":3359:3528   */\n  swap3\n  swap2\n  pop\n  pop\n  jump\t// out\n    /* \"#utility.yul\":3533:3828   */\ntag_24:\n    /* \"#utility.yul\":3609:3613   */\n  0x00\n    /* \"#utility.yul\":3755:3784   */\n  tag_70\n    /* \"#utility.yul\":3780:3783   */\n  dup4\n    /* \"#utility.yul\":3774:3778   */\n  dup4\n    /* \"#utility.yul\":3755:3784   */\n  tag_23\n  jump\t// in\ntag_70:\n    /* \"#utility.yul\":3747:3784   */\n  swap2\n  pop\n    /* \"#utility.yul\":3817:3820   */\n  dup3\n    /* \"#utility.yul\":3814:3815   */\n  0x02\n    /* \"#utility.yul\":3810:3821   */\n  mul\n    /* \"#utility.yul\":3804:3808   */\n  dup3\n    /* \"#utility.yul\":3801:3822   */\n  or\n    /* \"#utility.yul\":3793:3822   */\n  swap1\n  pop\n    /* \"#utility.yul\":3533:3828   */\n  swap3\n  swap2\n  pop\n  pop\n  jump\t// out\n    /* \"#utility.yul\":3833:5228   */\ntag_2:\n    /* \"#utility.yul\":3950:3987   */\n  tag_72\n    /* \"#utility.yul\":3983:3986   */\n  dup3\n    /* \"#utility.yul\":3950:3987   */\n  tag_5\n  jump\t// in\ntag_72:\n    /* \"#utility.yul\":4052:4070   */\n  0xffffffffffffffff\n    /* \"#utility.yul\":4044:4050   */\n  dup2\n    /* \"#utility.yul\":4041:4071   */\n  gt\n    /* \"#utility.yul\":4038:4094   */\n  iszero\n  tag_73\n  jumpi\n    /* \"#utility.yul\":4074:4092   */\n  tag_74\n  tag_6\n  jump\t// in\ntag_74:\n    /* \"#utility.yul\":4038:4094   */\ntag_73:\n    /* \"#utility.yul\":4118:4156   */\n  tag_75\n    /* \"#utility.yul\":4150:4154   */\n  dup3\n    /* \"#utility.yul\":4144:4155   */\n  sload\n    /* \"#utility.yul\":4118:4156   */\n  tag_8\n  jump\t// in\ntag_75:\n    /* \"#utility.yul\":4203:4270   */\n  tag_76\n    /* \"#utility.yul\":4263:4269   */\n  dup3\n    /* \"#utility.yul\":4255:4261   */\n  dup3\n    /* \"#utility.yul\":4249:4253   */\n  dup6\n    /* \"#utility.yul\":4203:4270   */\n  tag_21\n  jump\t// in\ntag_76:\n    /* \"#utility.yul\":4297:4298   */\n  0x00\n    /* \"#utility.yul\":4321:4325   */\n  0x20\n    /* \"#utility.yul\":4308:4325   */\n  swap1\n  pop\n    /* \"#utility.yul\":4353:4355   */\n  0x1f\n    /* \"#utility.yul\":4345:4351   */\n  dup4\n    /* \"#utility.yul\":4342:4356   */\n  gt\n    /* \"#utility.yul\":4370:4371   */\n  0x01\n    /* \"#utility.yul\":4365:4983   */\n  dup2\n  eq\n  tag_78\n  jumpi\n    /* \"#utility.yul\":5027:5028   */\n  0x00\n    /* \"#utility.yul\":5044:5050   */\n  dup5\n    /* \"#utility.yul\":5041:5118   */\n  iszero\n  tag_79\n  jumpi\n    /* \"#utility.yul\":5093:5102   */\n  dup3\n    /* \"#utility.yul\":5088:5091   */\n  dup8\n    /* \"#utility.yul\":5084:5103   */\n  add\n    /* \"#utility.yul\":5078:5104   */\n  mload\n    /* \"#utility.yul\":5069:5104   */\n  swap1\n  pop\n    /* \"#utility.yul\":5041:5118   */\ntag_79:\n    /* \"#utility.yul\":5144:5211   */\n  tag_80\n    /* \"#utility.yul\":5204:5210   */\n  dup6\n    /* \"#utility.yul\":5197:5202   */\n  dup3\n    /* \"#utility.yul\":5144:5211   */\n  tag_24\n  jump\t// in\ntag_80:\n    /* \"#utility.yul\":5138:5142   */\n  dup7\n    /* \"#utility.yul\":5131:5212   */\n  sstore\n    /* \"#utility.yul\":5000:5222   */\n  pop\n    /* \"#utility.yul\":4335:5222   */\n  jump(tag_77)\n    /* \"#utility.yul\":4365:4983   */\ntag_78:\n    /* \"#utility.yul\":4417:4421   */\n  0x1f\n    /* \"#utility.yul\":4413:4422   */\n  not\n    /* \"#utility.yul\":4405:4411   */\n  dup5\n    /* \"#utility.yul\":4401:4423   */\n  and\n    /* \"#utility.yul\":4451:4488   */\n  tag_81\n    /* \"#utility.yul\":4483:4487   */\n  dup7\n    /* \"#utility.yul\":4451:4488   */\n  tag_9\n  jump\t// in\ntag_81:\n    /* \"#utility.yul\":4510:4511   */\n  0x00\n    /* \"#utility.yul\":4524:4732   */\ntag_82:\n    /* \"#utility.yul\":4538:4545   */\n  dup3\n    /* \"#utility.yul\":4535:4536   */\n  dup2\n    /* \"#utility.yul\":4532:4546   */\n  lt\n    /* \"#utility.yul\":4524:4732   */\n  iszero\n  tag_84\n  jumpi\n    /* \"#utility.yul\":4617:4626   */\n  dup5\n    /* \"#utility.yul\":4612:4615   */\n  dup10\n    /* \"#utility.yul\":4608:4627   */\n  add\n    /* \"#utility.yul\":4602:4628   */\n  mload\n    /* \"#utility.yul\":4594:4600   */\n  dup3\n    /* \"#utility.yul\":4587:4629   */\n  sstore\n    /* \"#utility.yul\":4668:4669   */\n  0x01\n    /* \"#utility.yul\":4660:4666   */\n  dup3\n    /* \"#utility.yul\":4656:4670   */\n  add\n    /* \"#utility.yul\":4646:4670   */\n  swap2\n  pop\n    /* \"#utility.yul\":4715:4717   */\n  0x20\n    /* \"#utility.yul\":4704:4713   */\n  dup6\n    /* \"#utility.yul\":4700:4718   */\n  add\n    /* \"#utility.yul\":4687:4718   */\n  swap5\n  pop\n    /* \"#utility.yul\":4561:4565   */\n  0x20\n    /* \"#utility.yul\":4558:4559   */\n  dup2\n    /* \"#utility.yul\":4554:4566   */\n  add\n    /* \"#utility.yul\":4549:4566   */\n  swap1\n  pop\n    /* \"#utility.yul\":4524:4732   */\n  jump(tag_82)\ntag_84:\n    /* \"#utility.yul\":4760:4766   */\n  dup7\n    /* \"#utility.yul\":4751:4758   */\n  dup4\n    /* \"#utility.yul\":4748:4767   */\n  lt\n    /* \"#utility.yul\":4745:4924   */\n  iszero\n  tag_85\n  jumpi\n    /* \"#utility.yul\":4818:4827   */\n  dup5\n    /* \"#utility.yul\":4813:4816   */\n  dup10\n    /* \"#utility.yul\":4809:4828   */\n  add\n    /* \"#utility.yul\":4803:4829   */\n  mload\n    /* \"#utility.yul\":4861:4909   */\n  tag_86\n    /* \"#utility.yul\":4903:4907   */\n  0x1f\n    /* \"#utility.yul\":4895:4901   */\n  dup10\n    /* \"#utility.yul\":4891:4908   */\n  and\n    /* \"#utility.yul\":4880:4889   */\n  dup3\n    /* \"#utility.yul\":4861:4909   */\n  tag_23\n  jump\t// in\ntag_86:\n    /* \"#utility.yul\":4853:4859   */\n  dup4\n    /* \"#utility.yul\":4846:4910   */\n  sstore\n    /* \"#utility.yul\":4768:4924   */\n  pop\n    /* \"#utility.yul\":4745:4924   */\ntag_85:\n    /* \"#utility.yul\":4970:4971   */\n  0x01\n    /* \"#utility.yul\":4966:4967   */\n  0x02\n    /* \"#utility.yul\":4958:4964   */\n  dup9\n    /* \"#utility.yul\":4954:4968   */\n  mul\n    /* \"#utility.yul\":4950:4972   */\n  add\n    /* \"#utility.yul\":4944:4948   */\n  dup9\n    /* \"#utility.yul\":4937:4973   */\n  sstore\n    /* \"#utility.yul\":4372:4983   */\n  pop\n  pop\n  pop\n    /* \"#utility.yul\":4335:5222   */\ntag_77:\n  pop\n    /* \"#utility.yul\":3925:5228   */\n  pop\n  pop\n  pop\n    /* \"#utility.yul\":3833:5228   */\n  pop\n  pop\n  jump\t// out\n    /* \"storage.sol\":59:437  contract SimpleStorage {... */\ntag_4:\n  dataSize(sub_0)\n  dup1\n  dataOffset(sub_0)\n  0x00\n  codecopy\n  0x00\n  return\nstop\n\nsub_0: assembly {\n        /* \"storage.sol\":59:437  contract SimpleStorage {... */\n      mstore(0x40, 0x80)\n      callvalue\n      dup1\n      iszero\n      tag_1\n      jumpi\n      0x00\n      dup1\n      revert\n    tag_1:\n      pop\n      jumpi(tag_2, lt(calldatasize, 0x04))\n      shr(0xe0, calldataload(0x00))\n      dup1\n      0x075b8fe1\n      eq\n      tag_3\n      jumpi\n      dup1\n      0x2e64cec1\n      eq\n      tag_4\n      jumpi\n      dup1\n      0x3e5a5df5\n      eq\n      tag_5\n      jumpi\n      dup1\n      0x6057361d\n      eq\n      tag_6\n      jumpi\n      dup1\n      0x624de725\n      eq\n      tag_7\n      jumpi\n    tag_2:\n      0x00\n      dup1\n      revert\n        /* \"storage.sol\":209:269  Person public jamie = Person({favNumber: 13, name: \"jamie\"}) */\n    tag_3:\n      tag_8\n      tag_9\n      jump\t// in\n    tag_8:\n      mload(0x40)\n      tag_10\n      swap3\n      swap2\n      swap1\n      tag_11\n      jump\t// in\n    tag_10:\n      mload(0x40)\n      dup1\n      swap2\n      sub\n      swap1\n      return\n        /* \"storage.sol\":356:435  function retrieve() public view returns(uint256) {... */\n    tag_4:\n      tag_12\n      tag_13\n      jump\t// in\n    tag_12:\n      mload(0x40)\n      tag_14\n      swap2\n      swap1\n      tag_15\n      jump\t// in\n    tag_14:\n      mload(0x40)\n      dup1\n      swap2\n      sub\n      swap1\n      return\n        /* \"storage.sol\":120:146  uint256 public Number1 = 0 */\n    tag_5:\n      tag_16\n      tag_17\n      jump\t// in\n    tag_16:\n      mload(0x40)\n      tag_18\n      swap2\n      swap1\n      tag_15\n      jump\t// in\n    tag_18:\n      mload(0x40)\n      dup1\n      swap2\n      sub\n      swap1\n      return\n        /* \"storage.sol\":276:351  function store(uint _favNumber) public {... */\n    tag_6:\n      tag_19\n      0x04\n      dup1\n      calldatasize\n      sub\n      dup2\n      add\n      swap1\n      tag_20\n      swap2\n      swap1\n      tag_21\n      jump\t// in\n    tag_20:\n      tag_22\n      jump\t// in\n    tag_19:\n      stop\n        /* \"storage.sol\":89:114  uint256 public Number = 0 */\n    tag_7:\n      tag_23\n      tag_24\n      jump\t// in\n    tag_23:\n      mload(0x40)\n      tag_25\n      swap2\n      swap1\n      tag_15\n      jump\t// in\n    tag_25:\n      mload(0x40)\n      dup1\n      swap2\n      sub\n      swap1\n      return\n        /* \"storage.sol\":209:269  Person public jamie = Person({favNumber: 13, name: \"jamie\"}) */\n    tag_9:\n      0x02\n      dup1\n      0x00\n      add\n      sload\n      swap1\n      dup1\n      0x01\n      add\n      dup1\n      sload\n      tag_26\n      swap1\n      tag_27\n      jump\t// in\n    tag_26:\n      dup1\n      0x1f\n      add\n      0x20\n      dup1\n      swap2\n      div\n      mul\n      0x20\n      add\n      mload(0x40)\n      swap1\n      dup2\n      add\n      0x40\n      mstore\n      dup1\n      swap3\n      swap2\n      swap1\n      dup2\n      dup2\n      mstore\n      0x20\n      add\n      dup3\n      dup1\n      sload\n      tag_28\n      swap1\n      tag_27\n      jump\t// in\n    tag_28:\n      dup1\n      iszero\n      tag_29\n      jumpi\n      dup1\n      0x1f\n      lt\n      tag_30\n      jumpi\n      0x0100\n      dup1\n      dup4\n      sload\n      div\n      mul\n      dup4\n      mstore\n      swap2\n      0x20\n      add\n      swap2\n      jump(tag_29)\n    tag_30:\n      dup3\n      add\n      swap2\n      swap1\n      0x00\n      mstore\n      keccak256(0x00, 0x20)\n      swap1\n    tag_31:\n      dup2\n      sload\n      dup2\n      mstore\n      swap1\n      0x01\n      add\n      swap1\n      0x20\n      add\n      dup1\n      dup4\n      gt\n      tag_31\n      jumpi\n      dup3\n      swap1\n      sub\n      0x1f\n      and\n      dup3\n      add\n      swap2\n    tag_29:\n      pop\n      pop\n      pop\n      pop\n      pop\n      swap1\n      pop\n      dup3\n      jump\t// out\n        /* \"storage.sol\":356:435  function retrieve() public view returns(uint256) {... */\n    tag_13:\n        /* \"storage.sol\":396:403  uint256 */\n      0x00\n        /* \"storage.sol\":422:428  Number */\n      dup1\n      sload\n        /* \"storage.sol\":415:428  return Number */\n      swap1\n      pop\n        /* \"storage.sol\":356:435  function retrieve() public view returns(uint256) {... */\n      swap1\n      jump\t// out\n        /* \"storage.sol\":120:146  uint256 public Number1 = 0 */\n    tag_17:\n      sload(0x01)\n      dup2\n      jump\t// out\n        /* \"storage.sol\":276:351  function store(uint _favNumber) public {... */\n    tag_22:\n        /* \"storage.sol\":334:344  _favNumber */\n      dup1\n        /* \"storage.sol\":325:331  Number */\n      0x00\n        /* \"storage.sol\":325:344  Number = _favNumber */\n      dup2\n      swap1\n      sstore\n      pop\n        /* \"storage.sol\":276:351  function store(uint _favNumber) public {... */\n      pop\n      jump\t// out\n        /* \"storage.sol\":89:114  uint256 public Number = 0 */\n    tag_24:\n      sload(0x00)\n      dup2\n      jump\t// out\n        /* \"#utility.yul\":7:84   */\n    tag_34:\n        /* \"#utility.yul\":44:51   */\n      0x00\n        /* \"#utility.yul\":73:78   */\n      dup2\n        /* \"#utility.yul\":62:78   */\n      swap1\n      pop\n        /* \"#utility.yul\":7:84   */\n      swap2\n      swap1\n      pop\n      jump\t// out\n        /* \"#utility.yul\":90:208   */\n    tag_35:\n        /* \"#utility.yul\":177:201   */\n      tag_50\n        /* \"#utility.yul\":195:200   */\n      dup2\n        /* \"#utility.yul\":177:201   */\n      tag_34\n      jump\t// in\n    tag_50:\n        /* \"#utility.yul\":172:175   */\n      dup3\n        /* \"#utility.yul\":165:202   */\n      mstore\n        /* \"#utility.yul\":90:208   */\n      pop\n      pop\n      jump\t// out\n        /* \"#utility.yul\":214:313   */\n    tag_36:\n        /* \"#utility.yul\":266:272   */\n      0x00\n        /* \"#utility.yul\":300:305   */\n      dup2\n        /* \"#utility.yul\":294:306   */\n      mload\n        /* \"#utility.yul\":284:306   */\n      swap1\n      pop\n        /* \"#utility.yul\":214:313   */\n      swap2\n      swap1\n      pop\n      jump\t// out\n        /* \"#utility.yul\":319:488   */\n    tag_37:\n        /* \"#utility.yul\":403:414   */\n      0x00\n        /* \"#utility.yul\":437:443   */\n      dup3\n        /* \"#utility.yul\":432:435   */\n      dup3\n        /* \"#utility.yul\":425:444   */\n      mstore\n        /* \"#utility.yul\":477:481   */\n      0x20\n        /* \"#utility.yul\":472:475   */\n      dup3\n        /* \"#utility.yul\":468:482   */\n      add\n        /* \"#utility.yul\":453:482   */\n      swap1\n      pop\n        /* \"#utility.yul\":319:488   */\n      swap3\n      swap2\n      pop\n      pop\n      jump\t// out\n        /* \"#utility.yul\":494:740   */\n    tag_38:\n        /* \"#utility.yul\":575:576   */\n      0x00\n        /* \"#utility.yul\":585:698   */\n    tag_54:\n        /* \"#utility.yul\":599:605   */\n      dup4\n        /* \"#utility.yul\":596:597   */\n      dup2\n        /* \"#utility.yul\":593:606   */\n      lt\n        /* \"#utility.yul\":585:698   */\n      iszero\n      tag_56\n      jumpi\n        /* \"#utility.yul\":684:685   */\n      dup1\n        /* \"#utility.yul\":679:682   */\n      dup3\n        /* \"#utility.yul\":675:686   */\n      add\n        /* \"#utility.yul\":669:687   */\n      mload\n        /* \"#utility.yul\":665:666   */\n      dup2\n        /* \"#utility.yul\":660:663   */\n      dup5\n        /* \"#utility.yul\":656:667   */\n      add\n        /* \"#utility.yul\":649:688   */\n      mstore\n        /* \"#utility.yul\":621:623   */\n      0x20\n        /* \"#utility.yul\":618:619   */\n      dup2\n        /* \"#utility.yul\":614:624   */\n      add\n        /* \"#utility.yul\":609:624   */\n      swap1\n      pop\n        /* \"#utility.yul\":585:698   */\n      jump(tag_54)\n    tag_56:\n        /* \"#utility.yul\":732:733   */\n      0x00\n        /* \"#utility.yul\":723:729   */\n      dup5\n        /* \"#utility.yul\":718:721   */\n      dup5\n        /* \"#utility.yul\":714:730   */\n      add\n        /* \"#utility.yul\":707:734   */\n      mstore\n        /* \"#utility.yul\":556:740   */\n      pop\n        /* \"#utility.yul\":494:740   */\n      pop\n      pop\n      pop\n      jump\t// out\n        /* \"#utility.yul\":746:848   */\n    tag_39:\n        /* \"#utility.yul\":787:793   */\n      0x00\n        /* \"#utility.yul\":838:840   */\n      0x1f\n        /* \"#utility.yul\":834:841   */\n      not\n        /* \"#utility.yul\":829:831   */\n      0x1f\n        /* \"#utility.yul\":822:827   */\n      dup4\n        /* \"#utility.yul\":818:832   */\n      add\n        /* \"#utility.yul\":814:842   */\n      and\n        /* \"#utility.yul\":804:842   */\n      swap1\n      pop\n        /* \"#utility.yul\":746:848   */\n      swap2\n      swap1\n      pop\n      jump\t// out\n        /* \"#utility.yul\":854:1231   */\n    tag_40:\n        /* \"#utility.yul\":942:945   */\n      0x00\n        /* \"#utility.yul\":970:1009   */\n      tag_59\n        /* \"#utility.yul\":1003:1008   */\n      dup3\n        /* \"#utility.yul\":970:1009   */\n      tag_36\n      jump\t// in\n    tag_59:\n        /* \"#utility.yul\":1025:1096   */\n      tag_60\n        /* \"#utility.yul\":1089:1095   */\n      dup2\n        /* \"#utility.yul\":1084:1087   */\n      dup6\n        /* \"#utility.yul\":1025:1096   */\n      tag_37\n      jump\t// in\n    tag_60:\n        /* \"#utility.yul\":1018:1096   */\n      swap4\n      pop\n        /* \"#utility.yul\":1105:1170   */\n      tag_61\n        /* \"#utility.yul\":1163:1169   */\n      dup2\n        /* \"#utility.yul\":1158:1161   */\n      dup6\n        /* \"#utility.yul\":1151:1155   */\n      0x20\n        /* \"#utility.yul\":1144:1149   */\n      dup7\n        /* \"#utility.yul\":1140:1156   */\n      add\n        /* \"#utility.yul\":1105:1170   */\n      tag_38\n      jump\t// in\n    tag_61:\n        /* \"#utility.yul\":1195:1224   */\n      tag_62\n        /* \"#utility.yul\":1217:1223   */\n      dup2\n        /* \"#utility.yul\":1195:1224   */\n      tag_39\n      jump\t// in\n    tag_62:\n        /* \"#utility.yul\":1190:1193   */\n      dup5\n        /* \"#utility.yul\":1186:1225   */\n      add\n        /* \"#utility.yul\":1179:1225   */\n      swap2\n      pop\n        /* \"#utility.yul\":946:1231   */\n      pop\n        /* \"#utility.yul\":854:1231   */\n      swap3\n      swap2\n      pop\n      pop\n      jump\t// out\n        /* \"#utility.yul\":1237:1660   */\n    tag_11:\n        /* \"#utility.yul\":1378:1382   */\n      0x00\n        /* \"#utility.yul\":1416:1418   */\n      0x40\n        /* \"#utility.yul\":1405:1414   */\n      dup3\n        /* \"#utility.yul\":1401:1419   */\n      add\n        /* \"#utility.yul\":1393:1419   */\n      swap1\n      pop\n        /* \"#utility.yul\":1429:1500   */\n      tag_64\n        /* \"#utility.yul\":1497:1498   */\n      0x00\n        /* \"#utility.yul\":1486:1495   */\n      dup4\n        /* \"#utility.yul\":1482:1499   */\n      add\n        /* \"#utility.yul\":1473:1479   */\n      dup6\n        /* \"#utility.yul\":1429:1500   */\n      tag_35\n      jump\t// in\n    tag_64:\n        /* \"#utility.yul\":1547:1556   */\n      dup2\n        /* \"#utility.yul\":1541:1545   */\n      dup2\n        /* \"#utility.yul\":1537:1557   */\n      sub\n        /* \"#utility.yul\":1532:1534   */\n      0x20\n        /* \"#utility.yul\":1521:1530   */\n      dup4\n        /* \"#utility.yul\":1517:1535   */\n      add\n        /* \"#utility.yul\":1510:1558   */\n      mstore\n        /* \"#utility.yul\":1575:1653   */\n      tag_65\n        /* \"#utility.yul\":1648:1652   */\n      dup2\n        /* \"#utility.yul\":1639:1645   */\n      dup5\n        /* \"#utility.yul\":1575:1653   */\n      tag_40\n      jump\t// in\n    tag_65:\n        /* \"#utility.yul\":1567:1653   */\n      swap1\n      pop\n        /* \"#utility.yul\":1237:1660   */\n      swap4\n      swap3\n      pop\n      pop\n      pop\n      jump\t// out\n        /* \"#utility.yul\":1666:1888   */\n    tag_15:\n        /* \"#utility.yul\":1759:1763   */\n      0x00\n        /* \"#utility.yul\":1797:1799   */\n      0x20\n        /* \"#utility.yul\":1786:1795   */\n      dup3\n        /* \"#utility.yul\":1782:1800   */\n      add\n        /* \"#utility.yul\":1774:1800   */\n      swap1\n      pop\n        /* \"#utility.yul\":1810:1881   */\n      tag_67\n        /* \"#utility.yul\":1878:1879   */\n      0x00\n        /* \"#utility.yul\":1867:1876   */\n      dup4\n        /* \"#utility.yul\":1863:1880   */\n      add\n        /* \"#utility.yul\":1854:1860   */\n      dup5\n        /* \"#utility.yul\":1810:1881   */\n      tag_35\n      jump\t// in\n    tag_67:\n        /* \"#utility.yul\":1666:1888   */\n      swap3\n      swap2\n      pop\n      pop\n      jump\t// out\n        /* \"#utility.yul\":1975:2092   */\n    tag_42:\n        /* \"#utility.yul\":2084:2085   */\n      0x00\n        /* \"#utility.yul\":2081:2082   */\n      dup1\n        /* \"#utility.yul\":2074:2086   */\n      revert\n        /* \"#utility.yul\":2221:2343   */\n    tag_44:\n        /* \"#utility.yul\":2294:2318   */\n      tag_72\n        /* \"#utility.yul\":2312:2317   */\n      dup2\n        /* \"#utility.yul\":2294:2318   */\n      tag_34\n      jump\t// in\n    tag_72:\n        /* \"#utility.yul\":2287:2292   */\n      dup2\n        /* \"#utility.yul\":2284:2319   */\n      eq\n        /* \"#utility.yul\":2274:2337   */\n      tag_73\n      jumpi\n        /* \"#utility.yul\":2333:2334   */\n      0x00\n        /* \"#utility.yul\":2330:2331   */\n      dup1\n        /* \"#utility.yul\":2323:2335   */\n      revert\n        /* \"#utility.yul\":2274:2337   */\n    tag_73:\n        /* \"#utility.yul\":2221:2343   */\n      pop\n      jump\t// out\n        /* \"#utility.yul\":2349:2488   */\n    tag_45:\n        /* \"#utility.yul\":2395:2400   */\n      0x00\n        /* \"#utility.yul\":2433:2439   */\n      dup2\n        /* \"#utility.yul\":2420:2440   */\n      calldataload\n        /* \"#utility.yul\":2411:2440   */\n      swap1\n      pop\n        /* \"#utility.yul\":2449:2482   */\n      tag_75\n        /* \"#utility.yul\":2476:2481   */\n      dup2\n        /* \"#utility.yul\":2449:2482   */\n      tag_44\n      jump\t// in\n    tag_75:\n        /* \"#utility.yul\":2349:2488   */\n      swap3\n      swap2\n      pop\n      pop\n      jump\t// out\n        /* \"#utility.yul\":2494:2823   */\n    tag_21:\n        /* \"#utility.yul\":2553:2559   */\n      0x00\n        /* \"#utility.yul\":2602:2604   */\n      0x20\n        /* \"#utility.yul\":2590:2599   */\n      dup3\n        /* \"#utility.yul\":2581:2588   */\n      dup5\n        /* \"#utility.yul\":2577:2600   */\n      sub\n        /* \"#utility.yul\":2573:2605   */\n      slt\n        /* \"#utility.yul\":2570:2689   */\n      iszero\n      tag_77\n      jumpi\n        /* \"#utility.yul\":2608:2687   */\n      tag_78\n      tag_42\n      jump\t// in\n    tag_78:\n        /* \"#utility.yul\":2570:2689   */\n    tag_77:\n        /* \"#utility.yul\":2728:2729   */\n      0x00\n        /* \"#utility.yul\":2753:2806   */\n      tag_79\n        /* \"#utility.yul\":2798:2805   */\n      dup5\n        /* \"#utility.yul\":2789:2795   */\n      dup3\n        /* \"#utility.yul\":2778:2787   */\n      dup6\n        /* \"#utility.yul\":2774:2796   */\n      add\n        /* \"#utility.yul\":2753:2806   */\n      tag_45\n      jump\t// in\n    tag_79:\n        /* \"#utility.yul\":2743:2806   */\n      swap2\n      pop\n        /* \"#utility.yul\":2699:2816   */\n      pop\n        /* \"#utility.yul\":2494:2823   */\n      swap3\n      swap2\n      pop\n      pop\n      jump\t// out\n        /* \"#utility.yul\":2829:3009   */\n    tag_46:\n        /* \"#utility.yul\":2877:2954   */\n      0x4e487b7100000000000000000000000000000000000000000000000000000000\n        /* \"#utility.yul\":2874:2875   */\n      0x00\n        /* \"#utility.yul\":2867:2955   */\n      mstore\n        /* \"#utility.yul\":2974:2978   */\n      0x22\n        /* \"#utility.yul\":2971:2972   */\n      0x04\n        /* \"#utility.yul\":2964:2979   */\n      mstore\n        /* \"#utility.yul\":2998:3002   */\n      0x24\n        /* \"#utility.yul\":2995:2996   */\n      0x00\n        /* \"#utility.yul\":2988:3003   */\n      revert\n        /* \"#utility.yul\":3015:3335   */\n    tag_27:\n        /* \"#utility.yul\":3059:3065   */\n      0x00\n        /* \"#utility.yul\":3096:3097   */\n      0x02\n        /* \"#utility.yul\":3090:3094   */\n      dup3\n        /* \"#utility.yul\":3086:3098   */\n      div\n        /* \"#utility.yul\":3076:3098   */\n      swap1\n      pop\n        /* \"#utility.yul\":3143:3144   */\n      0x01\n        /* \"#utility.yul\":3137:3141   */\n      dup3\n        /* \"#utility.yul\":3133:3145   */\n      and\n        /* \"#utility.yul\":3164:3182   */\n      dup1\n        /* \"#utility.yul\":3154:3235   */\n      tag_82\n      jumpi\n        /* \"#utility.yul\":3220:3224   */\n      0x7f\n        /* \"#utility.yul\":3212:3218   */\n      dup3\n        /* \"#utility.yul\":3208:3225   */\n      and\n        /* \"#utility.yul\":3198:3225   */\n      swap2\n      pop\n        /* \"#utility.yul\":3154:3235   */\n    tag_82:\n        /* \"#utility.yul\":3282:3284   */\n      0x20\n        /* \"#utility.yul\":3274:3280   */\n      dup3\n        /* \"#utility.yul\":3271:3285   */\n      lt\n        /* \"#utility.yul\":3251:3269   */\n      dup2\n        /* \"#utility.yul\":3248:3286   */\n      sub\n        /* \"#utility.yul\":3245:3329   */\n      tag_83\n      jumpi\n        /* \"#utility.yul\":3301:3319   */\n      tag_84\n      tag_46\n      jump\t// in\n    tag_84:\n        /* \"#utility.yul\":3245:3329   */\n    tag_83:\n        /* \"#utility.yul\":3066:3335   */\n      pop\n        /* \"#utility.yul\":3015:3335   */\n      swap2\n      swap1\n      pop\n      jump\t// out\n\n    auxdata: 0xa26469706673582212202dfedb464573bd1c709c86ed547e67ce7aa49912ac33e5a3e2aa37cee0bf22a364736f6c63430008130033\n}\n",
				"bytecode": {
					"linkReferences": {},
					"object": "60806040526000805560006001556040518060400160405280600d81526020016040518060400160405280600581526020017f6a616d6965000000000000000000000000000000000000000000000000000000815250815250600260008201518160000155602082015181600101908161007991906102de565b50505034801561008857600080fd5b506103b0565b600081519050919050565b7f4e487b7100000000000000000000000000000000000000000000000000000000600052604160045260246000fd5b7f4e487b7100000000000000000000000000000000000000000000000000000000600052602260045260246000fd5b6000600282049050600182168061010f57607f821691505b602082108103610122576101216100c8565b5b50919050565b60008190508160005260206000209050919050565b60006020601f8301049050919050565b600082821b905092915050565b60006008830261018a7fffffffffffffffffffffffffffffffffffffffffffffffffffffffffffffffff8261014d565b610194868361014d565b95508019841693508086168417925050509392505050565b6000819050919050565b6000819050919050565b60006101db6101d66101d1846101ac565b6101b6565b6101ac565b9050919050565b6000819050919050565b6101f5836101c0565b610209610201826101e2565b84845461015a565b825550505050565b600090565b61021e610211565b6102298184846101ec565b505050565b5b8181101561024d57610242600082610216565b60018101905061022f565b5050565b601f8211156102925761026381610128565b61026c8461013d565b8101602085101561027b578190505b61028f6102878561013d565b83018261022e565b50505b505050565b600082821c905092915050565b60006102b560001984600802610297565b1980831691505092915050565b60006102ce83836102a4565b9150826002028217905092915050565b6102e78261008e565b67ffffffffffffffff811115610300576102ff610099565b5b61030a82546100f7565b610315828285610251565b600060209050601f8311600181146103485760008415610336578287015190505b61034085826102c2565b8655506103a8565b601f19841661035686610128565b60005b8281101561037e57848901518255600182019150602085019450602081019050610359565b8683101561039b5784890151610397601f8916826102a4565b8355505b6001600288020188555050505b505050505050565b610392806103bf6000396000f3fe608060405234801561001057600080fd5b50600436106100575760003560e01c8063075b8fe11461005c5780632e64cec11461007b5780633e5a5df5146100995780636057361d146100b7578063624de725146100d3575b600080fd5b6100646100f1565b604051610072929190610253565b60405180910390f35b61008361018b565b6040516100909190610283565b60405180910390f35b6100a1610194565b6040516100ae9190610283565b60405180910390f35b6100d160048036038101906100cc91906102cf565b61019a565b005b6100db6101a4565b6040516100e89190610283565b60405180910390f35b60028060000154908060010180546101089061032b565b80601f01602080910402602001604051908101604052809291908181526020018280546101349061032b565b80156101815780601f1061015657610100808354040283529160200191610181565b820191906000526020600020905b81548152906001019060200180831161016457829003601f168201915b5050505050905082565b60008054905090565b60015481565b8060008190555050565b60005481565b6000819050919050565b6101bd816101aa565b82525050565b600081519050919050565b600082825260208201905092915050565b60005b838110156101fd5780820151818401526020810190506101e2565b60008484015250505050565b6000601f19601f8301169050919050565b6000610225826101c3565b61022f81856101ce565b935061023f8185602086016101df565b61024881610209565b840191505092915050565b600060408201905061026860008301856101b4565b818103602083015261027a818461021a565b90509392505050565b600060208201905061029860008301846101b4565b92915050565b600080fd5b6102ac816101aa565b81146102b757600080fd5b50565b6000813590506102c9816102a3565b92915050565b6000602082840312156102e5576102e461029e565b5b60006102f3848285016102ba565b91505092915050565b7f4e487b7100000000000000000000000000000000000000000000000000000000600052602260045260246000fd5b6000600282049050600182168061034357607f821691505b602082108103610356576103556102fc565b5b5091905056fea26469706673582212202dfedb464573bd1c709c86ed547e67ce7aa49912ac33e5a3e2aa37cee0bf22a364736f6c63430008130033",
					"opcodes": "PUSH1 0x80 PUSH1 0x40 MSTORE PUSH1 0x0 DUP1 SSTORE PUSH1 0x0 PUSH1 0x1 SSTORE PUSH1 0x40 MLOAD DUP1 PUSH1 0x40 ADD PUSH1 0x40 MSTORE DUP1 PUSH1 0xD DUP2 MSTORE PUSH1 0x20 ADD PUSH1 0x40 MLOAD DUP1 PUSH1 0x40 ADD PUSH1 0x40 MSTORE DUP1 PUSH1 0x5 DUP2 MSTORE PUSH1 0x20 ADD PUSH32 0x6A616D6965000000000000000000000000000000000000000000000000000000 DUP2 MSTORE POP DUP2 MSTORE POP PUSH1 0x2 PUSH1 0x0 DUP3 ADD MLOAD DUP2 PUSH1 0x0 ADD SSTORE PUSH1 0x20 DUP3 ADD MLOAD DUP2 PUSH1 0x1 ADD SWAP1 DUP2 PUSH2 0x79 SWAP2 SWAP1 PUSH2 0x2DE JUMP JUMPDEST POP POP POP CALLVALUE DUP1 ISZERO PUSH2 0x88 JUMPI PUSH1 0x0 DUP1 REVERT JUMPDEST POP PUSH2 0x3B0 JUMP JUMPDEST PUSH1 0x0 DUP2 MLOAD SWAP1 POP SWAP2 SWAP1 POP JUMP JUMPDEST PUSH32 0x4E487B7100000000000000000000000000000000000000000000000000000000 PUSH1 0x0 MSTORE PUSH1 0x41 PUSH1 0x4 MSTORE PUSH1 0x24 PUSH1 0x0 REVERT JUMPDEST PUSH32 0x4E487B7100000000000000000000000000000000000000000000000000000000 PUSH1 0x0 MSTORE PUSH1 0x22 PUSH1 0x4 MSTORE PUSH1 0x24 PUSH1 0x0 REVERT JUMPDEST PUSH1 0x0 PUSH1 0x2 DUP3 DIV SWAP1 POP PUSH1 0x1 DUP3 AND DUP1 PUSH2 0x10F JUMPI PUSH1 0x7F DUP3 AND SWAP2 POP JUMPDEST PUSH1 0x20 DUP3 LT DUP2 SUB PUSH2 0x122 JUMPI PUSH2 0x121 PUSH2 0xC8 JUMP JUMPDEST JUMPDEST POP SWAP2 SWAP1 POP JUMP JUMPDEST PUSH1 0x0 DUP2 SWAP1 POP DUP2 PUSH1 0x0 MSTORE PUSH1 0x20 PUSH1 0x0 KECCAK256 SWAP1 POP SWAP2 SWAP1 POP JUMP JUMPDEST PUSH1 0x0 PUSH1 0x20 PUSH1 0x1F DUP4 ADD DIV SWAP1 POP SWAP2 SWAP1 POP JUMP JUMPDEST PUSH1 0x0 DUP3 DUP3 SHL SWAP1 POP SWAP3 SWAP2 POP POP JUMP JUMPDEST PUSH1 0x0 PUSH1 0x8 DUP4 MUL PUSH2 0x18A PUSH32 0xFFFFFFFFFFFFFFFFFFFFFFFFFFFFFFFFFFFFFFFFFFFFFFFFFFFFFFFFFFFFFFFF DUP3 PUSH2 0x14D JUMP JUMPDEST PUSH2 0x194 DUP7 DUP4 PUSH2 0x14D JUMP JUMPDEST SWAP6 POP DUP1 NOT DUP5 AND SWAP4 POP DUP1 DUP7 AND DUP5 OR SWAP3 POP POP POP SWAP4 SWAP3 POP POP POP JUMP JUMPDEST PUSH1 0x0 DUP2 SWAP1 POP SWAP2 SWAP1 POP JUMP JUMPDEST PUSH1 0x0 DUP2 SWAP1 POP SWAP2 SWAP1 POP JUMP JUMPDEST PUSH1 0x0 PUSH2 0x1DB PUSH2 0x1D6 PUSH2 0x1D1 DUP5 PUSH2 0x1AC JUMP JUMPDEST PUSH2 0x1B6 JUMP JUMPDEST PUSH2 0x1AC JUMP JUMPDEST SWAP1 POP SWAP2 SWAP1 POP JUMP JUMPDEST PUSH1 0x0 DUP2 SWAP1 POP SWAP2 SWAP1 POP JUMP JUMPDEST PUSH2 0x1F5 DUP4 PUSH2 0x1C0 JUMP JUMPDEST PUSH2 0x209 PUSH2 0x201 DUP3 PUSH2 0x1E2 JUMP JUMPDEST DUP5 DUP5 SLOAD PUSH2 0x15A JUMP JUMPDEST DUP3 SSTORE POP POP POP POP JUMP JUMPDEST PUSH1 0x0 SWAP1 JUMP JUMPDEST PUSH2 0x21E PUSH2 0x211 JUMP JUMPDEST PUSH2 0x229 DUP2 DUP5 DUP5 PUSH2 0x1EC JUMP JUMPDEST POP POP POP JUMP JUMPDEST JUMPDEST DUP2 DUP2 LT ISZERO PUSH2 0x24D JUMPI PUSH2 0x242 PUSH1 0x0 DUP3 PUSH2 0x216 JUMP JUMPDEST PUSH1 0x1 DUP2 ADD SWAP1 POP PUSH2 0x22F JUMP JUMPDEST POP POP JUMP JUMPDEST PUSH1 0x1F DUP3 GT ISZERO PUSH2 0x292 JUMPI PUSH2 0x263 DUP2 PUSH2 0x128 JUMP JUMPDEST PUSH2 0x26C DUP5 PUSH2 0x13D JUMP JUMPDEST DUP2 ADD PUSH1 0x20 DUP6 LT ISZERO PUSH2 0x27B JUMPI DUP2 SWAP1 POP JUMPDEST PUSH2 0x28F PUSH2 0x287 DUP6 PUSH2 0x13D JUMP JUMPDEST DUP4 ADD DUP3 PUSH2 0x22E JUMP JUMPDEST POP POP JUMPDEST POP POP POP JUMP JUMPDEST PUSH1 0x0 DUP3 DUP3 SHR SWAP1 POP SWAP3 SWAP2 POP POP JUMP JUMPDEST PUSH1 0x0 PUSH2 0x2B5 PUSH1 0x0 NOT DUP5 PUSH1 0x8 MUL PUSH2 0x297 JUMP JUMPDEST NOT DUP1 DUP4 AND SWAP2 POP POP SWAP3 SWAP2 POP POP JUMP JUMPDEST PUSH1 0x0 PUSH2 0x2CE DUP4 DUP4 PUSH2 0x2A4 JUMP JUMPDEST SWAP2 POP DUP3 PUSH1 0x2 MUL DUP3 OR SWAP1 POP SWAP3 SWAP2 POP POP JUMP JUMPDEST PUSH2 0x2E7 DUP3 PUSH2 0x8E JUMP JUMPDEST PUSH8 0xFFFFFFFFFFFFFFFF DUP2 GT ISZERO PUSH2 0x300 JUMPI PUSH2 0x2FF PUSH2 0x99 JUMP JUMPDEST JUMPDEST PUSH2 0x30A DUP3 SLOAD PUSH2 0xF7 JUMP JUMPDEST PUSH2 0x315 DUP3 DUP3 DUP6 PUSH2 0x251 JUMP JUMPDEST PUSH1 0x0 PUSH1 0x20 SWAP1 POP PUSH1 0x1F DUP4 GT PUSH1 0x1 DUP2 EQ PUSH2 0x348 JUMPI PUSH1 0x0 DUP5 ISZERO PUSH2 0x336 JUMPI DUP3 DUP8 ADD MLOAD SWAP1 POP JUMPDEST PUSH2 0x340 DUP6 DUP3 PUSH2 0x2C2 JUMP JUMPDEST DUP7 SSTORE POP PUSH2 0x3A8 JUMP JUMPDEST PUSH1 0x1F NOT DUP5 AND PUSH2 0x356 DUP7 PUSH2 0x128 JUMP JUMPDEST PUSH1 0x0 JUMPDEST DUP3 DUP2 LT ISZERO PUSH2 0x37E JUMPI DUP5 DUP10 ADD MLOAD DUP3 SSTORE PUSH1 0x1 DUP3 ADD SWAP2 POP PUSH1 0x20 DUP6 ADD SWAP5 POP PUSH1 0x20 DUP2 ADD SWAP1 POP PUSH2 0x359 JUMP JUMPDEST DUP7 DUP4 LT ISZERO PUSH2 0x39B JUMPI DUP5 DUP10 ADD MLOAD PUSH2 0x397 PUSH1 0x1F DUP10 AND DUP3 PUSH2 0x2A4 JUMP JUMPDEST DUP4 SSTORE POP JUMPDEST PUSH1 0x1 PUSH1 0x2 DUP9 MUL ADD DUP9 SSTORE POP POP POP JUMPDEST POP POP POP POP POP POP JUMP JUMPDEST PUSH2 0x392 DUP1 PUSH2 0x3BF PUSH1 0x0 CODECOPY PUSH1 0x0 RETURN INVALID PUSH1 0x80 PUSH1 0x40 MSTORE CALLVALUE DUP1 ISZERO PUSH2 0x10 JUMPI PUSH1 0x0 DUP1 REVERT JUMPDEST POP PUSH1 0x4 CALLDATASIZE LT PUSH2 0x57 JUMPI PUSH1 0x0 CALLDATALOAD PUSH1 0xE0 SHR DUP1 PUSH4 0x75B8FE1 EQ PUSH2 0x5C JUMPI DUP1 PUSH4 0x2E64CEC1 EQ PUSH2 0x7B JUMPI DUP1 PUSH4 0x3E5A5DF5 EQ PUSH2 0x99 JUMPI DUP1 PUSH4 0x6057361D EQ PUSH2 0xB7 JUMPI DUP1 PUSH4 0x624DE725 EQ PUSH2 0xD3 JUMPI JUMPDEST PUSH1 0x0 DUP1 REVERT JUMPDEST PUSH2 0x64 PUSH2 0xF1 JUMP JUMPDEST PUSH1 0x40 MLOAD PUSH2 0x72 SWAP3 SWAP2 SWAP1 PUSH2 0x253 JUMP JUMPDEST PUSH1 0x40 MLOAD DUP1 SWAP2 SUB SWAP1 RETURN JUMPDEST PUSH2 0x83 PUSH2 0x18B JUMP JUMPDEST PUSH1 0x40 MLOAD PUSH2 0x90 SWAP2 SWAP1 PUSH2 0x283 JUMP JUMPDEST PUSH1 0x40 MLOAD DUP1 SWAP2 SUB SWAP1 RETURN JUMPDEST PUSH2 0xA1 PUSH2 0x194 JUMP JUMPDEST PUSH1 0x40 MLOAD PUSH2 0xAE SWAP2 SWAP1 PUSH2 0x283 JUMP JUMPDEST PUSH1 0x40 MLOAD DUP1 SWAP2 SUB SWAP1 RETURN JUMPDEST PUSH2 0xD1 PUSH1 0x4 DUP1 CALLDATASIZE SUB DUP2 ADD SWAP1 PUSH2 0xCC SWAP2 SWAP1 PUSH2 0x2CF JUMP JUMPDEST PUSH2 0x19A JUMP JUMPDEST STOP JUMPDEST PUSH2 0xDB PUSH2 0x1A4 JUMP JUMPDEST PUSH1 0x40 MLOAD PUSH2 0xE8 SWAP2 SWAP1 PUSH2 0x283 JUMP JUMPDEST PUSH1 0x40 MLOAD DUP1 SWAP2 SUB SWAP1 RETURN JUMPDEST PUSH1 0x2 DUP1 PUSH1 0x0 ADD SLOAD SWAP1 DUP1 PUSH1 0x1 ADD DUP1 SLOAD PUSH2 0x108 SWAP1 PUSH2 0x32B JUMP JUMPDEST DUP1 PUSH1 0x1F ADD PUSH1 0x20 DUP1 SWAP2 DIV MUL PUSH1 0x20 ADD PUSH1 0x40 MLOAD SWAP1 DUP2 ADD PUSH1 0x40 MSTORE DUP1 SWAP3 SWAP2 SWAP1 DUP2 DUP2 MSTORE PUSH1 0x20 ADD DUP3 DUP1 SLOAD PUSH2 0x134 SWAP1 PUSH2 0x32B JUMP JUMPDEST DUP1 ISZERO PUSH2 0x181 JUMPI DUP1 PUSH1 0x1F LT PUSH2 0x156 JUMPI PUSH2 0x100 DUP1 DUP4 SLOAD DIV MUL DUP4 MSTORE SWAP2 PUSH1 0x20 ADD SWAP2 PUSH2 0x181 JUMP JUMPDEST DUP3 ADD SWAP2 SWAP1 PUSH1 0x0 MSTORE PUSH1 0x20 PUSH1 0x0 KECCAK256 SWAP1 JUMPDEST DUP2 SLOAD DUP2 MSTORE SWAP1 PUSH1 0x1 ADD SWAP1 PUSH1 0x20 ADD DUP1 DUP4 GT PUSH2 0x164 JUMPI DUP3 SWAP1 SUB PUSH1 0x1F AND DUP3 ADD SWAP2 JUMPDEST POP POP POP POP POP SWAP1 POP DUP3 JUMP JUMPDEST PUSH1 0x0 DUP1 SLOAD SWAP1 POP SWAP1 JUMP JUMPDEST PUSH1 0x1 SLOAD DUP2 JUMP JUMPDEST DUP1 PUSH1 0x0 DUP2 SWAP1 SSTORE POP POP JUMP JUMPDEST PUSH1 0x0 SLOAD DUP2 JUMP JUMPDEST PUSH1 0x0 DUP2 SWAP1 POP SWAP2 SWAP1 POP JUMP JUMPDEST PUSH2 0x1BD DUP2 PUSH2 0x1AA JUMP JUMPDEST DUP3 MSTORE POP POP JUMP JUMPDEST PUSH1 0x0 DUP2 MLOAD SWAP1 POP SWAP2 SWAP1 POP JUMP JUMPDEST PUSH1 0x0 DUP3 DUP3 MSTORE PUSH1 0x20 DUP3 ADD SWAP1 POP SWAP3 SWAP2 POP POP JUMP JUMPDEST PUSH1 0x0 JUMPDEST DUP4 DUP2 LT ISZERO PUSH2 0x1FD JUMPI DUP1 DUP3 ADD MLOAD DUP2 DUP5 ADD MSTORE PUSH1 0x20 DUP2 ADD SWAP1 POP PUSH2 0x1E2 JUMP JUMPDEST PUSH1 0x0 DUP5 DUP5 ADD MSTORE POP POP POP POP JUMP JUMPDEST PUSH1 0x0 PUSH1 0x1F NOT PUSH1 0x1F DUP4 ADD AND SWAP1 POP SWAP2 SWAP1 POP JUMP JUMPDEST PUSH1 0x0 PUSH2 0x225 DUP3 PUSH2 0x1C3 JUMP JUMPDEST PUSH2 0x22F DUP2 DUP6 PUSH2 0x1CE JUMP JUMPDEST SWAP4 POP PUSH2 0x23F DUP2 DUP6 PUSH1 0x20 DUP7 ADD PUSH2 0x1DF JUMP JUMPDEST PUSH2 0x248 DUP2 PUSH2 0x209 JUMP JUMPDEST DUP5 ADD SWAP2 POP POP SWAP3 SWAP2 POP POP JUMP JUMPDEST PUSH1 0x0 PUSH1 0x40 DUP3 ADD SWAP1 POP PUSH2 0x268 PUSH1 0x0 DUP4 ADD DUP6 PUSH2 0x1B4 JUMP JUMPDEST DUP2 DUP2 SUB PUSH1 0x20 DUP4 ADD MSTORE PUSH2 0x27A DUP2 DUP5 PUSH2 0x21A JUMP JUMPDEST SWAP1 POP SWAP4 SWAP3 POP POP POP JUMP JUMPDEST PUSH1 0x0 PUSH1 0x20 DUP3 ADD SWAP1 POP PUSH2 0x298 PUSH1 0x0 DUP4 ADD DUP5 PUSH2 0x1B4 JUMP JUMPDEST SWAP3 SWAP2 POP POP JUMP JUMPDEST PUSH1 0x0 DUP1 REVERT JUMPDEST PUSH2 0x2AC DUP2 PUSH2 0x1AA JUMP JUMPDEST DUP2 EQ PUSH2 0x2B7 JUMPI PUSH1 0x0 DUP1 REVERT JUMPDEST POP JUMP JUMPDEST PUSH1 0x0 DUP2 CALLDATALOAD SWAP1 POP PUSH2 0x2C9 DUP2 PUSH2 0x2A3 JUMP JUMPDEST SWAP3 SWAP2 POP POP JUMP JUMPDEST PUSH1 0x0 PUSH1 0x20 DUP3 DUP5 SUB SLT ISZERO PUSH2 0x2E5 JUMPI PUSH2 0x2E4 PUSH2 0x29E JUMP JUMPDEST JUMPDEST PUSH1 0x0 PUSH2 0x2F3 DUP5 DUP3 DUP6 ADD PUSH2 0x2BA JUMP JUMPDEST SWAP2 POP POP SWAP3 SWAP2 POP POP JUMP JUMPDEST PUSH32 0x4E487B7100000000000000000000000000000000000000000000000000000000 PUSH1 0x0 MSTORE PUSH1 0x22 PUSH1 0x4 MSTORE PUSH1 0x24 PUSH1 0x0 REVERT JUMPDEST PUSH1 0x0 PUSH1 0x2 DUP3 DIV SWAP1 POP PUSH1 0x1 DUP3 AND DUP1 PUSH2 0x343 JUMPI PUSH1 0x7F DUP3 AND SWAP2 POP JUMPDEST PUSH1 0x20 DUP3 LT DUP2 SUB PUSH2 0x356 JUMPI PUSH2 0x355 PUSH2 0x2FC JUMP JUMPDEST JUMPDEST POP SWAP2 SWAP1 POP JUMP INVALID LOG2 PUSH5 0x6970667358 0x22 SLT KECCAK256 0x2D INVALID 0xDB CHAINID GASLIMIT PUSH20 0xBD1C709C86ED547E67CE7AA49912AC33E5A3E2AA CALLDATACOPY 0xCE 0xE0 0xBF 0x22 LOG3 PUSH5 0x736F6C6343 STOP ADDMOD SGT STOP CALLER "
				},
				"gasEstimates": {
					"creation": {
						"codeDepositCost": "182800",
						"executionCost": "infinite",
						"totalCost": "infinite"
					},
					"external": {
						"Number()": "2495",
						"Number1()": "2451",
						"jamie()": "infinite",
						"retrieve()": "2437",
						"store(uint256)": "22564"
					}
				},
				"methodIdentifiers": {
					"Number()": "624de725",
					"Number1()": "3e5a5df5",
					"jamie()": "075b8fe1",
					"retrieve()": "2e64cec1",
					"store(uint256)": "6057361d"
				}
			},
			"storageLayout": {
				"storage": [
					{
						"astId": 4,
						"contract": "storage.sol:SimpleStorage",
						"label": "Number",
						"offset": 0,
						"slot": "0",
						"type": "t_uint256"
					},
					{
						"astId": 7,
						"contract": "storage.sol:SimpleStorage",
						"label": "Number1",
						"offset": 0,
						"slot": "1",
						"type": "t_uint256"
					},
					{
						"astId": 19,
						"contract": "storage.sol:SimpleStorage",
						"label": "jamie",
						"offset": 0,
						"slot": "2",
						"type": "t_struct(Person)12_storage"
					}
				],
				"types": {
					"t_string_storage": {
						"encoding": "bytes",
						"label": "string",
						"numberOfBytes": "32"
					},
					"t_struct(Person)12_storage": {
						"encoding": "inplace",
						"label": "struct SimpleStorage.Person",
						"members": [
							{
								"astId": 9,
								"contract": "storage.sol:SimpleStorage",
								"label": "favNumber",
								"offset": 0,
								"slot": "0",
								"type": "t_uint256"
							},
							{
								"astId": 11,
								"contract": "storage.sol:SimpleStorage",
								"label": "name",
								"offset": 0,
								"slot": "1",
								"type": "t_string_storage"
							}
						],
						"numberOfBytes": "64"
					},
					"t_uint256": {
						"encoding": "inplace",
						"label": "uint256",
						"numberOfBytes": "32"
					}
				}
			},
			"userdoc": {
				"kind": "user",
				"methods": {},
				"version": 1
			}
		}
	}
}